{
  "_format": "hh-sol-artifact-1",
  "contractName": "GMNCharacter",
  "sourceName": "contracts/GMNCharacter.sol",
  "abi": [
    {
      "inputs": [],
      "stateMutability": "nonpayable",
      "type": "constructor"
    },
    {
      "anonymous": false,
      "inputs": [
        {
          "indexed": true,
          "internalType": "address",
          "name": "owner",
          "type": "address"
        },
        {
          "indexed": true,
          "internalType": "address",
          "name": "approved",
          "type": "address"
        },
        {
          "indexed": true,
          "internalType": "uint256",
          "name": "tokenId",
          "type": "uint256"
        }
      ],
      "name": "Approval",
      "type": "event"
    },
    {
      "anonymous": false,
      "inputs": [
        {
          "indexed": true,
          "internalType": "address",
          "name": "owner",
          "type": "address"
        },
        {
          "indexed": true,
          "internalType": "address",
          "name": "operator",
          "type": "address"
        },
        {
          "indexed": false,
          "internalType": "bool",
          "name": "approved",
          "type": "bool"
        }
      ],
      "name": "ApprovalForAll",
      "type": "event"
    },
    {
      "anonymous": false,
      "inputs": [
        {
          "indexed": false,
          "internalType": "uint256",
          "name": "tokenId",
          "type": "uint256"
        },
        {
          "indexed": false,
          "internalType": "string",
          "name": "name",
          "type": "string"
        }
      ],
      "name": "ChangeName",
      "type": "event"
    },
    {
      "anonymous": false,
      "inputs": [
        {
          "indexed": false,
          "internalType": "address",
          "name": "player",
          "type": "address"
        },
        {
          "indexed": false,
          "internalType": "uint256",
          "name": "tokenId",
          "type": "uint256"
        },
        {
          "components": [
            {
              "internalType": "string",
              "name": "name",
              "type": "string"
            },
            {
              "internalType": "uint8",
              "name": "kind",
              "type": "uint8"
            },
            {
              "internalType": "enum GMNCharacter.Sex",
              "name": "sex",
              "type": "uint8"
            },
            {
              "internalType": "enum GMNCharacter.Rarity",
              "name": "rarity",
              "type": "uint8"
            }
          ],
          "indexed": false,
          "internalType": "struct GMNCharacter.CharacterInfo",
          "name": "info",
          "type": "tuple"
        }
      ],
      "name": "Minted",
      "type": "event"
    },
    {
      "anonymous": false,
      "inputs": [
        {
          "indexed": true,
          "internalType": "bytes32",
          "name": "role",
          "type": "bytes32"
        },
        {
          "indexed": true,
          "internalType": "bytes32",
          "name": "previousAdminRole",
          "type": "bytes32"
        },
        {
          "indexed": true,
          "internalType": "bytes32",
          "name": "newAdminRole",
          "type": "bytes32"
        }
      ],
      "name": "RoleAdminChanged",
      "type": "event"
    },
    {
      "anonymous": false,
      "inputs": [
        {
          "indexed": true,
          "internalType": "bytes32",
          "name": "role",
          "type": "bytes32"
        },
        {
          "indexed": true,
          "internalType": "address",
          "name": "account",
          "type": "address"
        },
        {
          "indexed": true,
          "internalType": "address",
          "name": "sender",
          "type": "address"
        }
      ],
      "name": "RoleGranted",
      "type": "event"
    },
    {
      "anonymous": false,
      "inputs": [
        {
          "indexed": true,
          "internalType": "bytes32",
          "name": "role",
          "type": "bytes32"
        },
        {
          "indexed": true,
          "internalType": "address",
          "name": "account",
          "type": "address"
        },
        {
          "indexed": true,
          "internalType": "address",
          "name": "sender",
          "type": "address"
        }
      ],
      "name": "RoleRevoked",
      "type": "event"
    },
    {
      "anonymous": false,
      "inputs": [
        {
          "indexed": false,
          "internalType": "string",
          "name": "baseUri",
          "type": "string"
        }
      ],
      "name": "SetBaseUri",
      "type": "event"
    },
    {
      "anonymous": false,
      "inputs": [
        {
          "indexed": false,
          "internalType": "address",
          "name": "currency",
          "type": "address"
        }
      ],
      "name": "SetCurrency",
      "type": "event"
    },
    {
      "anonymous": false,
      "inputs": [
        {
          "indexed": false,
          "internalType": "address",
          "name": "revenueAddress",
          "type": "address"
        }
      ],
      "name": "SetRevenueAddress",
      "type": "event"
    },
    {
      "anonymous": false,
      "inputs": [
        {
          "indexed": false,
          "internalType": "uint256",
          "name": "newTokenId",
          "type": "uint256"
        },
        {
          "indexed": false,
          "internalType": "address",
          "name": "player",
          "type": "address"
        },
        {
          "components": [
            {
              "internalType": "string",
              "name": "name",
              "type": "string"
            },
            {
              "internalType": "uint8",
              "name": "kind",
              "type": "uint8"
            },
            {
              "internalType": "enum GMNCharacter.Sex",
              "name": "sex",
              "type": "uint8"
            },
            {
              "internalType": "enum GMNCharacter.Rarity",
              "name": "rarity",
              "type": "uint8"
            }
          ],
          "indexed": false,
          "internalType": "struct GMNCharacter.CharacterInfo",
          "name": "characterInfo",
          "type": "tuple"
        },
        {
          "indexed": false,
          "internalType": "uint256",
          "name": "price",
          "type": "uint256"
        }
      ],
      "name": "Sold",
      "type": "event"
    },
    {
      "anonymous": false,
      "inputs": [
        {
          "indexed": true,
          "internalType": "address",
          "name": "from",
          "type": "address"
        },
        {
          "indexed": true,
          "internalType": "address",
          "name": "to",
          "type": "address"
        },
        {
          "indexed": true,
          "internalType": "uint256",
          "name": "tokenId",
          "type": "uint256"
        }
      ],
      "name": "Transfer",
      "type": "event"
    },
    {
      "anonymous": false,
      "inputs": [
        {
          "indexed": false,
          "internalType": "bytes",
          "name": "signature",
          "type": "bytes"
        }
      ],
      "name": "UsedSignature",
      "type": "event"
    },
    {
      "anonymous": false,
      "inputs": [
        {
          "indexed": false,
          "internalType": "address",
          "name": "revenueAddress",
          "type": "address"
        },
        {
          "indexed": false,
          "internalType": "uint256",
          "name": "amount",
          "type": "uint256"
        }
      ],
      "name": "WithdrawRevenue",
      "type": "event"
    },
    {
      "inputs": [],
      "name": "DEFAULT_ADMIN_ROLE",
      "outputs": [
        {
          "internalType": "bytes32",
          "name": "",
          "type": "bytes32"
        }
      ],
      "stateMutability": "view",
      "type": "function"
    },
    {
      "inputs": [],
      "name": "MINTER_ROLE",
      "outputs": [
        {
          "internalType": "bytes32",
          "name": "",
          "type": "bytes32"
        }
      ],
      "stateMutability": "view",
      "type": "function"
    },
    {
      "inputs": [],
      "name": "OPERATION_ROLE",
      "outputs": [
        {
          "internalType": "bytes32",
          "name": "",
          "type": "bytes32"
        }
      ],
      "stateMutability": "view",
      "type": "function"
    },
    {
      "inputs": [],
      "name": "OWNER_ROLE",
      "outputs": [
        {
          "internalType": "bytes32",
          "name": "",
          "type": "bytes32"
        }
      ],
      "stateMutability": "view",
      "type": "function"
    },
    {
      "inputs": [
        {
          "internalType": "address",
          "name": "to",
          "type": "address"
        },
        {
          "internalType": "uint256",
          "name": "tokenId",
          "type": "uint256"
        }
      ],
      "name": "approve",
      "outputs": [],
      "stateMutability": "nonpayable",
      "type": "function"
    },
    {
      "inputs": [
        {
          "internalType": "address",
          "name": "owner",
          "type": "address"
        }
      ],
      "name": "balanceOf",
      "outputs": [
        {
          "internalType": "uint256",
          "name": "",
          "type": "uint256"
        }
      ],
      "stateMutability": "view",
      "type": "function"
    },
    {
      "inputs": [
        {
          "components": [
            {
              "internalType": "string",
              "name": "name",
              "type": "string"
            },
            {
              "internalType": "uint8",
              "name": "kind",
              "type": "uint8"
            },
            {
              "internalType": "enum GMNCharacter.Sex",
              "name": "sex",
              "type": "uint8"
            },
            {
              "internalType": "enum GMNCharacter.Rarity",
              "name": "rarity",
              "type": "uint8"
            }
          ],
          "internalType": "struct GMNCharacter.CharacterInfo",
          "name": "character",
          "type": "tuple"
        },
        {
          "internalType": "uint256",
          "name": "price",
          "type": "uint256"
        },
        {
          "internalType": "uint256",
          "name": "expire",
          "type": "uint256"
        },
        {
          "internalType": "bytes",
          "name": "signature",
          "type": "bytes"
        }
      ],
      "name": "buy",
      "outputs": [
        {
          "internalType": "uint256",
          "name": "",
          "type": "uint256"
        }
      ],
      "stateMutability": "payable",
      "type": "function"
    },
    {
      "inputs": [
        {
          "internalType": "uint256",
          "name": "tokenId",
          "type": "uint256"
        },
        {
          "internalType": "string",
          "name": "name",
          "type": "string"
        }
      ],
      "name": "changeName",
      "outputs": [],
      "stateMutability": "nonpayable",
      "type": "function"
    },
    {
      "inputs": [
        {
          "internalType": "address",
          "name": "token",
          "type": "address"
        },
        {
          "internalType": "uint256",
          "name": "amount",
          "type": "uint256"
        },
        {
          "internalType": "address",
          "name": "sendTo",
          "type": "address"
        }
      ],
      "name": "forceReturnERC20",
      "outputs": [],
      "stateMutability": "nonpayable",
      "type": "function"
    },
    {
      "inputs": [
        {
          "internalType": "address",
          "name": "sendTo",
          "type": "address"
        },
        {
          "internalType": "address",
          "name": "token",
          "type": "address"
        },
        {
          "internalType": "uint256",
          "name": "tokenId",
          "type": "uint256"
        }
      ],
      "name": "forceReturnERC721",
      "outputs": [],
      "stateMutability": "nonpayable",
      "type": "function"
    },
    {
      "inputs": [
        {
          "internalType": "uint256",
          "name": "amount",
          "type": "uint256"
        },
        {
          "internalType": "address payable",
          "name": "sendTo",
          "type": "address"
        }
      ],
      "name": "forceReturnNative",
      "outputs": [],
      "stateMutability": "nonpayable",
      "type": "function"
    },
    {
      "inputs": [
        {
          "internalType": "uint256",
          "name": "tokenId",
          "type": "uint256"
        }
      ],
      "name": "getApproved",
      "outputs": [
        {
          "internalType": "address",
          "name": "",
          "type": "address"
        }
      ],
      "stateMutability": "view",
      "type": "function"
    },
    {
      "inputs": [
        {
          "internalType": "uint256",
          "name": "tokenId",
          "type": "uint256"
        }
      ],
      "name": "getCharacter",
      "outputs": [
        {
          "components": [
            {
              "internalType": "string",
              "name": "name",
              "type": "string"
            },
            {
              "internalType": "uint8",
              "name": "kind",
              "type": "uint8"
            },
            {
              "internalType": "enum GMNCharacter.Sex",
              "name": "sex",
              "type": "uint8"
            },
            {
              "internalType": "enum GMNCharacter.Rarity",
              "name": "rarity",
              "type": "uint8"
            }
          ],
          "internalType": "struct GMNCharacter.CharacterInfo",
          "name": "",
          "type": "tuple"
        }
      ],
      "stateMutability": "view",
      "type": "function"
    },
    {
      "inputs": [
        {
          "internalType": "bytes32",
          "name": "role",
          "type": "bytes32"
        }
      ],
      "name": "getRoleAdmin",
      "outputs": [
        {
          "internalType": "bytes32",
          "name": "",
          "type": "bytes32"
        }
      ],
      "stateMutability": "view",
      "type": "function"
    },
    {
      "inputs": [
        {
          "internalType": "bytes32",
          "name": "role",
          "type": "bytes32"
        },
        {
          "internalType": "address",
          "name": "account",
          "type": "address"
        }
      ],
      "name": "grantRole",
      "outputs": [],
      "stateMutability": "nonpayable",
      "type": "function"
    },
    {
      "inputs": [
        {
          "internalType": "bytes32",
          "name": "role",
          "type": "bytes32"
        },
        {
          "internalType": "address",
          "name": "account",
          "type": "address"
        }
      ],
      "name": "hasRole",
      "outputs": [
        {
          "internalType": "bool",
          "name": "",
          "type": "bool"
        }
      ],
      "stateMutability": "view",
      "type": "function"
    },
    {
      "inputs": [
        {
          "internalType": "address",
          "name": "owner",
          "type": "address"
        },
        {
          "internalType": "address",
          "name": "operator",
          "type": "address"
        }
      ],
      "name": "isApprovedForAll",
      "outputs": [
        {
          "internalType": "bool",
          "name": "",
          "type": "bool"
        }
      ],
      "stateMutability": "view",
      "type": "function"
    },
    {
      "inputs": [],
      "name": "name",
      "outputs": [
        {
          "internalType": "string",
          "name": "",
          "type": "string"
        }
      ],
      "stateMutability": "view",
      "type": "function"
    },
    {
      "inputs": [
        {
          "internalType": "uint256",
          "name": "tokenId",
          "type": "uint256"
        }
      ],
      "name": "ownerOf",
      "outputs": [
        {
          "internalType": "address",
          "name": "",
          "type": "address"
        }
      ],
      "stateMutability": "view",
      "type": "function"
    },
    {
      "inputs": [
        {
          "internalType": "bytes32",
          "name": "role",
          "type": "bytes32"
        },
        {
          "internalType": "address",
          "name": "account",
          "type": "address"
        }
      ],
      "name": "renounceRole",
      "outputs": [],
      "stateMutability": "nonpayable",
      "type": "function"
    },
    {
      "inputs": [],
      "name": "revenueAddress",
      "outputs": [
        {
          "internalType": "address",
          "name": "",
          "type": "address"
        }
      ],
      "stateMutability": "view",
      "type": "function"
    },
    {
      "inputs": [
        {
          "internalType": "bytes32",
          "name": "role",
          "type": "bytes32"
        },
        {
          "internalType": "address",
          "name": "account",
          "type": "address"
        }
      ],
      "name": "revokeRole",
      "outputs": [],
      "stateMutability": "nonpayable",
      "type": "function"
    },
    {
      "inputs": [
        {
          "internalType": "address",
          "name": "from",
          "type": "address"
        },
        {
          "internalType": "address",
          "name": "to",
          "type": "address"
        },
        {
          "internalType": "uint256",
          "name": "tokenId",
          "type": "uint256"
        }
      ],
      "name": "safeTransferFrom",
      "outputs": [],
      "stateMutability": "nonpayable",
      "type": "function"
    },
    {
      "inputs": [
        {
          "internalType": "address",
          "name": "from",
          "type": "address"
        },
        {
          "internalType": "address",
          "name": "to",
          "type": "address"
        },
        {
          "internalType": "uint256",
          "name": "tokenId",
          "type": "uint256"
        },
        {
          "internalType": "bytes",
          "name": "data",
          "type": "bytes"
        }
      ],
      "name": "safeTransferFrom",
      "outputs": [],
      "stateMutability": "nonpayable",
      "type": "function"
    },
    {
      "inputs": [
        {
          "internalType": "address",
          "name": "operator",
          "type": "address"
        },
        {
          "internalType": "bool",
          "name": "approved",
          "type": "bool"
        }
      ],
      "name": "setApprovalForAll",
      "outputs": [],
      "stateMutability": "nonpayable",
      "type": "function"
    },
    {
      "inputs": [
        {
          "internalType": "string",
          "name": "_baseUri",
          "type": "string"
        }
      ],
      "name": "setBaseUri",
      "outputs": [],
      "stateMutability": "nonpayable",
      "type": "function"
    },
    {
      "inputs": [
        {
          "internalType": "address",
          "name": "_currency",
          "type": "address"
        }
      ],
      "name": "setCurrency",
      "outputs": [],
      "stateMutability": "nonpayable",
      "type": "function"
    },
    {
      "inputs": [
        {
          "internalType": "address",
          "name": "_revenue",
          "type": "address"
        }
      ],
      "name": "setRevenueAddress",
      "outputs": [],
      "stateMutability": "nonpayable",
      "type": "function"
    },
    {
      "inputs": [
        {
          "internalType": "bytes4",
          "name": "interfaceId",
          "type": "bytes4"
        }
      ],
      "name": "supportsInterface",
      "outputs": [
        {
          "internalType": "bool",
          "name": "",
          "type": "bool"
        }
      ],
      "stateMutability": "view",
      "type": "function"
    },
    {
      "inputs": [],
      "name": "symbol",
      "outputs": [
        {
          "internalType": "string",
          "name": "",
          "type": "string"
        }
      ],
      "stateMutability": "view",
      "type": "function"
    },
    {
      "inputs": [
        {
          "internalType": "uint256",
          "name": "index",
          "type": "uint256"
        }
      ],
      "name": "tokenByIndex",
      "outputs": [
        {
          "internalType": "uint256",
          "name": "",
          "type": "uint256"
        }
      ],
      "stateMutability": "view",
      "type": "function"
    },
    {
      "inputs": [
        {
          "internalType": "address",
          "name": "user",
          "type": "address"
        }
      ],
      "name": "tokenIds",
      "outputs": [
        {
          "internalType": "uint256[]",
          "name": "ids",
          "type": "uint256[]"
        }
      ],
      "stateMutability": "view",
      "type": "function"
    },
    {
      "inputs": [
        {
          "internalType": "address",
          "name": "owner",
          "type": "address"
        },
        {
          "internalType": "uint256",
          "name": "index",
          "type": "uint256"
        }
      ],
      "name": "tokenOfOwnerByIndex",
      "outputs": [
        {
          "internalType": "uint256",
          "name": "",
          "type": "uint256"
        }
      ],
      "stateMutability": "view",
      "type": "function"
    },
    {
      "inputs": [
        {
          "internalType": "uint256",
          "name": "tokenId",
          "type": "uint256"
        }
      ],
      "name": "tokenURI",
      "outputs": [
        {
          "internalType": "string",
          "name": "",
          "type": "string"
        }
      ],
      "stateMutability": "view",
      "type": "function"
    },
    {
      "inputs": [],
      "name": "totalSupply",
      "outputs": [
        {
          "internalType": "uint256",
          "name": "",
          "type": "uint256"
        }
      ],
      "stateMutability": "view",
      "type": "function"
    },
    {
      "inputs": [
        {
          "internalType": "address",
          "name": "from",
          "type": "address"
        },
        {
          "internalType": "address",
          "name": "to",
          "type": "address"
        },
        {
          "internalType": "uint256",
          "name": "tokenId",
          "type": "uint256"
        }
      ],
      "name": "transferFrom",
      "outputs": [],
      "stateMutability": "nonpayable",
      "type": "function"
    },
    {
      "inputs": [],
      "name": "withdrawRevenue",
      "outputs": [],
      "stateMutability": "nonpayable",
      "type": "function"
    },
    {
      "stateMutability": "payable",
      "type": "receive"
    }
  ],
  "bytecode": "0x60806040523480156200001157600080fd5b50604080518082018252601681527f476f6c644d696e65724e46542043686172616374657200000000000000000000602080830191825283518085019094526004845263474d4e4360e01b90840152815191929162000073916001916200026a565b508051620000899060029060208401906200026a565b505050604051806060016040528060358152602001620040bc603591398051620000bc91600c916020909101906200026a565b50620000d86000805160206200409c833981519152806200016f565b620001137f9f2df0fed2c77648de5860a4cc508cd0818c85b8b8a1ab4ceeef8d981c8956a66000805160206200409c8339815191526200016f565b6200014e7f20296b01d0b6bd176f0c1e29644934c0047abf080dae43609a1bbc09e39bafdb6000805160206200409c8339815191526200016f565b620001696000805160206200409c83398151915233620001ba565b6200034d565b600082815260208190526040808220600101805490849055905190918391839186917fbd79b86ffe0ab8e8776151514217cd7cacd52c909f66475c3af44e129f0b00ff9190a4505050565b620001c68282620001ca565b5050565b6000828152602081815260408083206001600160a01b038516845290915290205460ff16620001c6576000828152602081815260408083206001600160a01b03851684529091529020805460ff19166001179055620002263390565b6001600160a01b0316816001600160a01b0316837f2f8788117e7eff1d82e926ec794901d17c78024a50270940304540a733656f0d60405160405180910390a45050565b828054620002789062000310565b90600052602060002090601f0160209004810192826200029c5760008555620002e7565b82601f10620002b757805160ff1916838001178555620002e7565b82800160010185558215620002e7579182015b82811115620002e7578251825591602001919060010190620002ca565b50620002f5929150620002f9565b5090565b5b80821115620002f55760008155600101620002fa565b600181811c908216806200032557607f821691505b602082108114156200034757634e487b7160e01b600052602260045260246000fd5b50919050565b613d3f806200035d6000396000f3fe60806040526004361061026e5760003560e01c806370a0823111610153578063b410908d116100cb578063d547741f1161007f578063e58378bb11610064578063e58378bb14610729578063e985e9c51461075d578063fc97a303146107a657600080fd5b8063d547741f146106dc578063dabb0531146106fc57600080fd5b8063c39cbef1116100b0578063c39cbef114610668578063c87b56dd14610688578063d5391393146106a857600080fd5b8063b410908d14610628578063b88d4fde1461064857600080fd5b806395d89b4111610122578063a217fddf11610107578063a217fddf146105d3578063a22cb465146105e8578063aab057171461060857600080fd5b806395d89b411461059e578063a0bcfc7f146105b357600080fd5b806370a08231146104e657806374b22647146105065780638545d8df1461052657806391d148541461055a57600080fd5b80632f745c59116101e657806345338d63116101b55780634f573cb21161019a5780634f573cb2146104915780634f6ccce7146104a65780636352211e146104c657600080fd5b806345338d63146104515780634977182b1461047157600080fd5b80632f745c59146103d15780632f84c391146103f157806336568abe1461041157806342842e0e1461043157600080fd5b8063137151831161023d57806323b872dd1161022257806323b872dd14610361578063248a9ca3146103815780632f2ff15d146103b157600080fd5b8063137151831461032b57806318160ddd1461034c57600080fd5b806301ffc9a71461027a57806306fdde03146102af578063081812fc146102d1578063095ea7b31461030957600080fd5b3661027557005b600080fd5b34801561028657600080fd5b5061029a6102953660046134c4565b6107d3565b60405190151581526020015b60405180910390f35b3480156102bb57600080fd5b506102c46107e4565b6040516102a691906139d0565b3480156102dd57600080fd5b506102f16102ec366004613488565b610876565b6040516001600160a01b0390911681526020016102a6565b34801561031557600080fd5b50610329610324366004613400565b61089d565b005b61033e61033936600461353c565b6109b8565b6040519081526020016102a6565b34801561035857600080fd5b5060095461033e565b34801561036d57600080fd5b5061032961037c366004613329565b610be4565b34801561038d57600080fd5b5061033e61039c366004613488565b60009081526020819052604090206001015490565b3480156103bd57600080fd5b506103296103cc3660046134a0565b610c5b565b3480156103dd57600080fd5b5061033e6103ec366004613400565b610c80565b3480156103fd57600080fd5b5061032961040c3660046132d5565b610d28565b34801561041d57600080fd5b5061032961042c3660046134a0565b610da8565b34801561043d57600080fd5b5061032961044c366004613329565b610e34565b34801561045d57600080fd5b5061032961046c3660046132d5565b610e4f565b34801561047d57600080fd5b5061032961048c366004613329565b610ec7565b34801561049d57600080fd5b50610329610f5f565b3480156104b257600080fd5b5061033e6104c1366004613488565b611193565b3480156104d257600080fd5b506102f16104e1366004613488565b611245565b3480156104f257600080fd5b5061033e6105013660046132d5565b6112aa565b34801561051257600080fd5b506103296105213660046134a0565b611344565b34801561053257600080fd5b5061033e7f20296b01d0b6bd176f0c1e29644934c0047abf080dae43609a1bbc09e39bafdb81565b34801561056657600080fd5b5061029a6105753660046134a0565b6000918252602082815260408084206001600160a01b0393909316845291905290205460ff1690565b3480156105aa57600080fd5b506102c4611417565b3480156105bf57600080fd5b506103296105ce3660046134fc565b611426565b3480156105df57600080fd5b5061033e600081565b3480156105f457600080fd5b506103296106033660046133d3565b61149b565b34801561061457600080fd5b5061032961062336600461342b565b6114a6565b34801561063457600080fd5b50600e546102f1906001600160a01b031681565b34801561065457600080fd5b50610329610663366004613369565b611559565b34801561067457600080fd5b506103296106833660046135c3565b6115d1565b34801561069457600080fd5b506102c46106a3366004613488565b6116ac565b3480156106b457600080fd5b5061033e7f9f2df0fed2c77648de5860a4cc508cd0818c85b8b8a1ab4ceeef8d981c8956a681565b3480156106e857600080fd5b506103296106f73660046134a0565b6117bd565b34801561070857600080fd5b5061071c610717366004613488565b6117e2565b6040516102a691906139f7565b34801561073557600080fd5b5061033e7fb19546dff01e856fb3f010c267a7b1c60363cf8a4664e21cc89c26224620214e81565b34801561076957600080fd5b5061029a6107783660046132f1565b6001600160a01b03918216600090815260066020908152604080832093909416825291909152205460ff1690565b3480156107b257600080fd5b506107c66107c13660046132d5565b6119f8565b6040516102a6919061398c565b60006107de82611ab3565b92915050565b6060600180546107f390613c37565b80601f016020809104026020016040519081016040528092919081815260200182805461081f90613c37565b801561086c5780601f106108415761010080835404028352916020019161086c565b820191906000526020600020905b81548152906001019060200180831161084f57829003601f168201915b5050505050905090565b600061088182611ad8565b506000908152600560205260409020546001600160a01b031690565b60006108a882611245565b9050806001600160a01b0316836001600160a01b0316141561091b5760405162461bcd60e51b815260206004820152602160248201527f4552433732313a20617070726f76616c20746f2063757272656e74206f776e656044820152603960f91b60648201526084015b60405180910390fd5b336001600160a01b038216148061093757506109378133610778565b6109a95760405162461bcd60e51b815260206004820152603d60248201527f4552433732313a20617070726f76652063616c6c6572206973206e6f7420746f60448201527f6b656e206f776e6572206f7220617070726f76656420666f7220616c6c0000006064820152608401610912565b6109b38383611b3f565b505050565b60006109ce6109c686613b4f565b858585611bad565b610a1a5760405162461bcd60e51b815260206004820152601160248201527f496e76616c6964205369676e61747572650000000000000000000000000000006044820152606401610912565b600d546001600160a01b0316610a7f5783341015610a7a5760405162461bcd60e51b815260206004820181905260248201527f42616c616e6365206973206e6f7420656e6f75676820746f20706179206665656044820152606401610912565b610b86565b600d546040516323b872dd60e01b8152336004820152306024820152604481018690526001600160a01b039091169060009082906323b872dd90606401602060405180830381600087803b158015610ad657600080fd5b505af1158015610aea573d6000803e3d6000fd5b505050506040513d601f19601f82011682018060405250810190610b0e919061346c565b905080610b835760405162461bcd60e51b815260206004820152602660248201527f43616e6e6f74207472616e7366657220455243323020546f6b656e20746f207060448201527f6179206e667400000000000000000000000000000000000000000000000000006064820152608401610912565b50505b6000610b9a33610b9588613b4f565b611dcf565b90507f636c8db46f713ef42efaa1b433d649e0c0f66db0d2fe98824183ce5d09e7981381338888604051610bd19493929190613a0a565b60405180910390a190505b949350505050565b610bee3382611f3b565b610c505760405162461bcd60e51b815260206004820152602d60248201527f4552433732313a2063616c6c6572206973206e6f7420746f6b656e206f776e6560448201526c1c881bdc88185c1c1c9bdd9959609a1b6064820152608401610912565b6109b3838383611fb9565b600082815260208190526040902060010154610c76816121a6565b6109b383836121b0565b6000610c8b836112aa565b8210610cff5760405162461bcd60e51b815260206004820152602b60248201527f455243373231456e756d657261626c653a206f776e657220696e646578206f7560448201527f74206f6620626f756e64730000000000000000000000000000000000000000006064820152608401610912565b506001600160a01b03919091166000908152600760209081526040808320938352929052205490565b7fb19546dff01e856fb3f010c267a7b1c60363cf8a4664e21cc89c26224620214e610d52816121a6565b600d80546001600160a01b0319166001600160a01b0384169081179091556040519081527fabafa9c1e6fed9b333f964bb84ed729c36b3152a843ae96a671ebc95742de6e6906020015b60405180910390a15050565b6001600160a01b0381163314610e265760405162461bcd60e51b815260206004820152602f60248201527f416363657373436f6e74726f6c3a2063616e206f6e6c792072656e6f756e636560448201527f20726f6c657320666f722073656c6600000000000000000000000000000000006064820152608401610912565b610e30828261224e565b5050565b6109b383838360405180602001604052806000815250611559565b7fb19546dff01e856fb3f010c267a7b1c60363cf8a4664e21cc89c26224620214e610e79816121a6565b600e80546001600160a01b0319166001600160a01b0384169081179091556040519081527f6262505032fadb740a3e85a77150827f4c68e089a646a1faa87781534bb8974f90602001610d9c565b7fb19546dff01e856fb3f010c267a7b1c60363cf8a4664e21cc89c26224620214e610ef1816121a6565b6040516323b872dd60e01b81523060048201526001600160a01b038581166024830152604482018490528416906323b872dd90606401600060405180830381600087803b158015610f4157600080fd5b505af1158015610f55573d6000803e3d6000fd5b5050505050505050565b7f20296b01d0b6bd176f0c1e29644934c0047abf080dae43609a1bbc09e39bafdb610f89816121a6565b600e546001600160a01b0316610feb5760405162461bcd60e51b815260206004820152602160248201527f4d7573742062652073657420726576656e7565206164647265737320666972736044820152601d60fa1b6064820152608401610912565b600d546040516370a0823160e01b81523060048201526001600160a01b039091169060009082906370a082319060240160206040518083038186803b15801561103357600080fd5b505afa158015611047573d6000803e3d6000fd5b505050506040513d601f19601f8201168201806040525081019061106b91906135ab565b600e5460405163a9059cbb60e01b81526001600160a01b039182166004820152602481018390529192506000919084169063a9059cbb90604401602060405180830381600087803b1580156110bf57600080fd5b505af11580156110d3573d6000803e3d6000fd5b505050506040513d601f19601f820116820180604052508101906110f7919061346c565b9050806111465760405162461bcd60e51b815260206004820152601f60248201527f4572726f72207768656e207472616e7366657220455243323020746f6b656e006044820152606401610912565b600e54604080516001600160a01b039092168252602082018490527f447d53be88e315476bdbe2e63cef309461f6305d09aada67641c29e6b897e30191015b60405180910390a150505050565b600061119e60095490565b82106112125760405162461bcd60e51b815260206004820152602c60248201527f455243373231456e756d657261626c653a20676c6f62616c20696e646578206f60448201527f7574206f6620626f756e647300000000000000000000000000000000000000006064820152608401610912565b6009828154811061123357634e487b7160e01b600052603260045260246000fd5b90600052602060002001549050919050565b6000818152600360205260408120546001600160a01b0316806107de5760405162461bcd60e51b815260206004820152601860248201527f4552433732313a20696e76616c696420746f6b656e20494400000000000000006044820152606401610912565b60006001600160a01b0382166113285760405162461bcd60e51b815260206004820152602960248201527f4552433732313a2061646472657373207a65726f206973206e6f74206120766160448201527f6c6964206f776e657200000000000000000000000000000000000000000000006064820152608401610912565b506001600160a01b031660009081526004602052604090205490565b7fb19546dff01e856fb3f010c267a7b1c60363cf8a4664e21cc89c26224620214e61136e816121a6565b6000826001600160a01b03168460405160006040518083038185875af1925050503d80600081146113bb576040519150601f19603f3d011682016040523d82523d6000602084013e6113c0565b606091505b50509050806114115760405162461bcd60e51b815260206004820152600f60248201527f7769746864726177206661696c656400000000000000000000000000000000006044820152606401610912565b50505050565b6060600280546107f390613c37565b7fb19546dff01e856fb3f010c267a7b1c60363cf8a4664e21cc89c26224620214e611450816121a6565b61145c600c84846130bf565b507fafa35f42f46f5052816d7c6a2e9406eca98294b20726677862d83b4a7418d8d5838360405161148e9291906139e3565b60405180910390a1505050565b610e303383836122cd565b7fb19546dff01e856fb3f010c267a7b1c60363cf8a4664e21cc89c26224620214e6114d0816121a6565b60405163a9059cbb60e01b81526001600160a01b0383811660048301526024820185905285169063a9059cbb90604401602060405180830381600087803b15801561151a57600080fd5b505af115801561152e573d6000803e3d6000fd5b505050506040513d601f19601f82011682018060405250810190611552919061346c565b5050505050565b6115633383611f3b565b6115c55760405162461bcd60e51b815260206004820152602d60248201527f4552433732313a2063616c6c6572206973206e6f7420746f6b656e206f776e6560448201526c1c881bdc88185c1c1c9bdd9959609a1b6064820152608401610912565b6114118484848461239c565b7f20296b01d0b6bd176f0c1e29644934c0047abf080dae43609a1bbc09e39bafdb6115fb816121a6565b6000848152600360205260409020546001600160a01b031661165f5760405162461bcd60e51b815260206004820152601b60248201527f717565727920666f72206e6f6e6578697374656e7420746f6b656e00000000006044820152606401610912565b6000848152600f602052604090206116789084846130bf565b507f355e6037a3f9c646870e44d77364164d02ab85580efdbb66363b503c3a25f5af84848460405161118593929190613ad3565b6000818152600360205260409020546060906001600160a01b031661171f5760405162461bcd60e51b815260206004820152602360248201527f4552433732313a20717565727920666f72206e6f6e6578697374656e7420746f60448201526235b2b760e91b6064820152608401610912565b6000828152601060205260409020805461173890613c37565b80601f016020809104026020016040519081016040528092919081815260200182805461176490613c37565b80156117b15780601f10611786576101008083540402835291602001916117b1565b820191906000526020600020905b81548152906001019060200180831161179457829003601f168201915b50505050509050919050565b6000828152602081905260409020600101546117d8816121a6565b6109b3838361224e565b61180d6040805160808101825260608152600060208201819052909182019081526020016000905290565b6000828152600360205260409020546001600160a01b03166118975760405162461bcd60e51b815260206004820152603160248201527f45524337323155524953746f726167653a2055524920717565727920666f722060448201527f6e6f6e6578697374656e7420746f6b656e0000000000000000000000000000006064820152608401610912565b6000828152600f6020526040908190208151608081019092528054829082906118bf90613c37565b80601f01602080910402602001604051908101604052809291908181526020018280546118eb90613c37565b80156119385780601f1061190d57610100808354040283529160200191611938565b820191906000526020600020905b81548152906001019060200180831161191b57829003601f168201915b505050918352505060018281015460ff8082166020850152604090930192610100909104169081111561197b57634e487b7160e01b600052602160045260246000fd5b600181111561199a57634e487b7160e01b600052602160045260246000fd5b81526020016001820160029054906101000a900460ff1660038111156119d057634e487b7160e01b600052602160045260246000fd5b60038111156119ef57634e487b7160e01b600052602160045260246000fd5b90525092915050565b60606000611a05836112aa565b90508067ffffffffffffffff811115611a2e57634e487b7160e01b600052604160045260246000fd5b604051908082528060200260200182016040528015611a57578160200160208202803683370190505b50915060005b81811015611aac57611a6f8482610c80565b838281518110611a8f57634e487b7160e01b600052603260045260246000fd5b602090810291909101015280611aa481613c72565b915050611a5d565b5050919050565b60006001600160e01b0319821663780e9d6360e01b14806107de57506107de82612425565b6000818152600360205260409020546001600160a01b0316611b3c5760405162461bcd60e51b815260206004820152601860248201527f4552433732313a20696e76616c696420746f6b656e20494400000000000000006044820152606401610912565b50565b600081815260056020526040902080546001600160a01b0319166001600160a01b0384169081179091558190611b7482611245565b6001600160a01b03167f8c5be1e5ebec7d5bd14f71427d1e84f3dd0314c0f7b2291e5b200ac8c7c3b92560405160405180910390a45050565b6000601182604051611bbf91906137b6565b9081526040519081900360200190205460ff1615611c1f5760405162461bcd60e51b815260206004820152601c60248201527f54686973207369676e617475726520686173206265656e2075736564000000006044820152606401610912565b6001601183604051611c3191906137b6565b908152604051908190036020019020805491151560ff1990921691909117905542831015611ca15760405162461bcd60e51b815260206004820152601160248201527f7369676e617475726520657870697265640000000000000000000000000000006044820152606401610912565b600033858760000151886020015189604001518a60600151308a604051602001611cd29897969594939291906136eb565b6040516020818303038152906040528051906020012090506000611d43826040517f19457468657265756d205369676e6564204d6573736167653a0a3332000000006020820152603c8101829052600090605c01604051602081830303815290604052805190602001209050919050565b90506000611d518286612465565b90507f8c12add2c0f515b04a197676a5354bcc2a36728b6a00e19afdad7592e0df76e285604051611d8291906139d0565b60405180910390a16001600160a01b031660009081527f0781d7cac9c378efa22a7481e4d4d29704a680ddf504b3bc50b517700ee11e6c602052604090205460ff16979650505050505050565b6000611ddf600b80546001019055565b6000611dea600b5490565b9050611df68482612489565b6000818152600f60209081526040909120845180518693611e1b928492910190613143565b5060208201516001808301805460ff90931660ff19841681178255604086015193919261ffff199092161790610100908490811115611e6a57634e487b7160e01b600052602160045260246000fd5b0217905550606082015160018201805462ff0000191662010000836003811115611ea457634e487b7160e01b600052602160045260246000fd5b0217905550905050600c611eb782612622565b604051602001611ec89291906137d2565b60408051601f198184030181529181526000838152601060209081529190208251611ef893919290910190613143565b507fec0af272e48b040cfd74226a4dfc90bd38ab17002c8e77dcbc0f3f3a5098c91b848285604051611f2c93929190613964565b60405180910390a19392505050565b600080611f4783611245565b9050806001600160a01b0316846001600160a01b03161480611f8e57506001600160a01b0380821660009081526006602090815260408083209388168352929052205460ff165b80610bdc5750836001600160a01b0316611fa784610876565b6001600160a01b031614949350505050565b826001600160a01b0316611fcc82611245565b6001600160a01b0316146120305760405162461bcd60e51b815260206004820152602560248201527f4552433732313a207472616e736665722066726f6d20696e636f72726563742060448201526437bbb732b960d91b6064820152608401610912565b6001600160a01b0382166120925760405162461bcd60e51b8152602060048201526024808201527f4552433732313a207472616e7366657220746f20746865207a65726f206164646044820152637265737360e01b6064820152608401610912565b61209f838383600161269c565b826001600160a01b03166120b282611245565b6001600160a01b0316146121165760405162461bcd60e51b815260206004820152602560248201527f4552433732313a207472616e736665722066726f6d20696e636f72726563742060448201526437bbb732b960d91b6064820152608401610912565b600081815260056020908152604080832080546001600160a01b03199081169091556001600160a01b0387811680865260048552838620805460001901905590871680865283862080546001019055868652600390945282852080549092168417909155905184937fddf252ad1be2c89b69c2b068fc378daa952ba7f163c4a11628f55a4df523b3ef91a4505050565b611b3c81336127dd565b6000828152602081815260408083206001600160a01b038516845290915290205460ff16610e30576000828152602081815260408083206001600160a01b03851684529091529020805460ff1916600117905561220a3390565b6001600160a01b0316816001600160a01b0316837f2f8788117e7eff1d82e926ec794901d17c78024a50270940304540a733656f0d60405160405180910390a45050565b6000828152602081815260408083206001600160a01b038516845290915290205460ff1615610e30576000828152602081815260408083206001600160a01b0385168085529252808320805460ff1916905551339285917ff6391f5c32d9c69d2a47ea670b442974b53935d1edc7fd64eb21e047a839171b9190a45050565b816001600160a01b0316836001600160a01b0316141561232f5760405162461bcd60e51b815260206004820152601960248201527f4552433732313a20617070726f766520746f2063616c6c6572000000000000006044820152606401610912565b6001600160a01b03838116600081815260066020908152604080832094871680845294825291829020805460ff191686151590811790915591519182527f17307eab39ab6107e8899845ad3d59bd9653f200f220920489ca2b5937696c31910160405180910390a3505050565b6123a7848484611fb9565b6123b384848484612850565b6114115760405162461bcd60e51b815260206004820152603260248201527f4552433732313a207472616e7366657220746f206e6f6e20455243373231526560448201527f63656976657220696d706c656d656e74657200000000000000000000000000006064820152608401610912565b60006001600160e01b031982166380ac58cd60e01b148061245657506001600160e01b03198216635b5e139f60e01b145b806107de57506107de826129b0565b600080600061247485856129e5565b9150915061248181612a2b565b509392505050565b6001600160a01b0382166124df5760405162461bcd60e51b815260206004820181905260248201527f4552433732313a206d696e7420746f20746865207a65726f20616464726573736044820152606401610912565b6000818152600360205260409020546001600160a01b0316156125445760405162461bcd60e51b815260206004820152601c60248201527f4552433732313a20746f6b656e20616c7265616479206d696e746564000000006044820152606401610912565b61255260008383600161269c565b6000818152600360205260409020546001600160a01b0316156125b75760405162461bcd60e51b815260206004820152601c60248201527f4552433732313a20746f6b656e20616c7265616479206d696e746564000000006044820152606401610912565b6001600160a01b038216600081815260046020908152604080832080546001019055848352600390915280822080546001600160a01b0319168417905551839291907fddf252ad1be2c89b69c2b068fc378daa952ba7f163c4a11628f55a4df523b3ef908290a45050565b6060811561267f5760605b82156107de5761263e600a84613c8d565b612649906030613aed565b8160405160200161265b9291906138f9565b60408051601f198184030181529190529050612678600a84613b05565b925061262d565b50506040805180820190915260018152600360fc1b602082015290565b6126a884848484612bb1565b600181111561271f5760405162461bcd60e51b815260206004820152603560248201527f455243373231456e756d657261626c653a20636f6e736563757469766520747260448201527f616e7366657273206e6f7420737570706f7274656400000000000000000000006064820152608401610912565b816001600160a01b03851661277b5761277681600980546000838152600a60205260408120829055600182018355919091527f6e1540171b6c0c960b71a7020d9f60077f6af931a8bbf590da0223dacf75c7af0155565b61279e565b836001600160a01b0316856001600160a01b03161461279e5761279e8582612c39565b6001600160a01b0384166127ba576127b581612cd6565b611552565b846001600160a01b0316846001600160a01b031614611552576115528482612daf565b6000828152602081815260408083206001600160a01b038516845290915290205460ff16610e305761280e81612df3565b612819836020612e05565b60405160200161282a929190613878565b60408051601f198184030181529082905262461bcd60e51b8252610912916004016139d0565b60006001600160a01b0384163b156129a857604051630a85bd0160e11b81526001600160a01b0385169063150b7a0290612894903390899088908890600401613928565b602060405180830381600087803b1580156128ae57600080fd5b505af19250505080156128de575060408051601f3d908101601f191682019092526128db918101906134e0565b60015b61298e573d80801561290c576040519150601f19603f3d011682016040523d82523d6000602084013e612911565b606091505b5080516129865760405162461bcd60e51b815260206004820152603260248201527f4552433732313a207472616e7366657220746f206e6f6e20455243373231526560448201527f63656976657220696d706c656d656e74657200000000000000000000000000006064820152608401610912565b805181602001fd5b6001600160e01b031916630a85bd0160e11b149050610bdc565b506001610bdc565b60006001600160e01b03198216637965db0b60e01b14806107de57506301ffc9a760e01b6001600160e01b03198316146107de565b600080825160411415612a1c5760208301516040840151606085015160001a612a1087828585612ffb565b94509450505050612a24565b506000905060025b9250929050565b6000816004811115612a4d57634e487b7160e01b600052602160045260246000fd5b1415612a565750565b6001816004811115612a7857634e487b7160e01b600052602160045260246000fd5b1415612ac65760405162461bcd60e51b815260206004820152601860248201527f45434453413a20696e76616c6964207369676e617475726500000000000000006044820152606401610912565b6002816004811115612ae857634e487b7160e01b600052602160045260246000fd5b1415612b365760405162461bcd60e51b815260206004820152601f60248201527f45434453413a20696e76616c6964207369676e6174757265206c656e677468006044820152606401610912565b6003816004811115612b5857634e487b7160e01b600052602160045260246000fd5b1415611b3c5760405162461bcd60e51b815260206004820152602260248201527f45434453413a20696e76616c6964207369676e6174757265202773272076616c604482015261756560f01b6064820152608401610912565b6001811115611411576001600160a01b03841615612bf7576001600160a01b03841660009081526004602052604081208054839290612bf1908490613b38565b90915550505b6001600160a01b03831615611411576001600160a01b03831660009081526004602052604081208054839290612c2e908490613aed565b909155505050505050565b60006001612c46846112aa565b612c509190613b38565b600083815260086020526040902054909150808214612ca3576001600160a01b03841660009081526007602090815260408083208584528252808320548484528184208190558352600890915290208190555b5060009182526008602090815260408084208490556001600160a01b039094168352600781528383209183525290812055565b600954600090612ce890600190613b38565b6000838152600a602052604081205460098054939450909284908110612d1e57634e487b7160e01b600052603260045260246000fd5b906000526020600020015490508060098381548110612d4d57634e487b7160e01b600052603260045260246000fd5b6000918252602080832090910192909255828152600a90915260408082208490558582528120556009805480612d9357634e487b7160e01b600052603160045260246000fd5b6001900381819060005260206000200160009055905550505050565b6000612dba836112aa565b6001600160a01b039093166000908152600760209081526040808320868452825280832085905593825260089052919091209190915550565b60606107de6001600160a01b03831660145b60606000612e14836002613b19565b612e1f906002613aed565b67ffffffffffffffff811115612e4557634e487b7160e01b600052604160045260246000fd5b6040519080825280601f01601f191660200182016040528015612e6f576020820181803683370190505b509050600360fc1b81600081518110612e9857634e487b7160e01b600052603260045260246000fd5b60200101906001600160f81b031916908160001a905350600f60fb1b81600181518110612ed557634e487b7160e01b600052603260045260246000fd5b60200101906001600160f81b031916908160001a9053506000612ef9846002613b19565b612f04906001613aed565b90505b6001811115612fa5577f303132333435363738396162636465660000000000000000000000000000000085600f1660108110612f5357634e487b7160e01b600052603260045260246000fd5b1a60f81b828281518110612f7757634e487b7160e01b600052603260045260246000fd5b60200101906001600160f81b031916908160001a90535060049490941c93612f9e81613c20565b9050612f07565b508315612ff45760405162461bcd60e51b815260206004820181905260248201527f537472696e67733a20686578206c656e67746820696e73756666696369656e746044820152606401610912565b9392505050565b6000807f7fffffffffffffffffffffffffffffff5d576e7357a4501ddfe92f46681b20a083111561303257506000905060036130b6565b6040805160008082526020820180845289905260ff881692820192909252606081018690526080810185905260019060a0016020604051602081039080840390855afa158015613086573d6000803e3d6000fd5b5050604051601f1901519150506001600160a01b0381166130af576000600192509250506130b6565b9150600090505b94509492505050565b8280546130cb90613c37565b90600052602060002090601f0160209004810192826130ed5760008555613133565b82601f106131065782800160ff19823516178555613133565b82800160010185558215613133579182015b82811115613133578235825591602001919060010190613118565b5061313f9291506131b7565b5090565b82805461314f90613c37565b90600052602060002090601f0160209004810192826131715760008555613133565b82601f1061318a57805160ff1916838001178555613133565b82800160010185558215613133579182015b8281111561313357825182559160200191906001019061319c565b5b8082111561313f57600081556001016131b8565b600067ffffffffffffffff808411156131e7576131e7613ce3565b604051601f8501601f19908116603f0116810190828211818310171561320f5761320f613ce3565b8160405280935085815286868601111561322857600080fd5b858560208301376000602087830101525050509392505050565b600082601f830112613252578081fd5b612ff4838335602085016131cc565b80356004811061327057600080fd5b919050565b80356002811061327057600080fd5b60008083601f840112613295578182fd5b50813567ffffffffffffffff8111156132ac578182fd5b602083019150836020828501011115612a2457600080fd5b803560ff8116811461327057600080fd5b6000602082840312156132e6578081fd5b8135612ff481613cf9565b60008060408385031215613303578081fd5b823561330e81613cf9565b9150602083013561331e81613cf9565b809150509250929050565b60008060006060848603121561333d578081fd5b833561334881613cf9565b9250602084013561335881613cf9565b929592945050506040919091013590565b6000806000806080858703121561337e578081fd5b843561338981613cf9565b9350602085013561339981613cf9565b925060408501359150606085013567ffffffffffffffff8111156133bb578182fd5b6133c787828801613242565b91505092959194509250565b600080604083850312156133e5578182fd5b82356133f081613cf9565b9150602083013561331e81613d0e565b60008060408385031215613412578182fd5b823561341d81613cf9565b946020939093013593505050565b60008060006060848603121561343f578283fd5b833561344a81613cf9565b925060208401359150604084013561346181613cf9565b809150509250925092565b60006020828403121561347d578081fd5b8151612ff481613d0e565b600060208284031215613499578081fd5b5035919050565b600080604083850312156134b2578182fd5b82359150602083013561331e81613cf9565b6000602082840312156134d5578081fd5b8135612ff481613d1c565b6000602082840312156134f1578081fd5b8151612ff481613d1c565b6000806020838503121561350e578182fd5b823567ffffffffffffffff811115613524578283fd5b61353085828601613284565b90969095509350505050565b60008060008060808587031215613551578182fd5b843567ffffffffffffffff80821115613568578384fd5b908601906080828903121561357b578384fd5b90945060208601359350604086013592506060860135908082111561359e578283fd5b506133c787828801613242565b6000602082840312156135bc578081fd5b5051919050565b6000806000604084860312156135d7578081fd5b83359250602084013567ffffffffffffffff8111156135f4578182fd5b61360086828701613284565b9497909650939450505050565b60008151808452613625816020860160208601613bf4565b601f01601f19169290920160200192915050565b6000815161364b818560208601613bf4565b9290920192915050565b6004811061366557613665613ccd565b9052565b6002811061366557613665613ccd565b81835281816020850137506000828201602090810191909152601f909101601f19169091010190565b60008151608084526136b7608085018261360d565b905060ff602084015116602085015260408301516136d86040860182613669565b5060608301516124816060860182613655565b6bffffffffffffffffffffffff198960601b1681528760148201526000875161371b816034850160208c01613bf4565b820161374e603482018960f81b7fff00000000000000000000000000000000000000000000000000000000000000169052565b6002871061375e5761375e613ccd565b8660f81b60358201526004861061377757613777613ccd565b8560f81b603682015261379e603782018660601b6bffffffffffffffffffffffff19169052565b604b8101939093525050606b01979650505050505050565b600082516137c8818460208701613bf4565b9190910192915050565b600080845482600182811c9150808316806137ee57607f831692505b602080841082141561380e57634e487b7160e01b87526022600452602487fd5b81801561382257600181146138335761385f565b60ff1986168952848901965061385f565b60008b815260209020885b868110156138575781548b82015290850190830161383e565b505084890196505b50505050505061386f8185613639565b95945050505050565b7f416363657373436f6e74726f6c3a206163636f756e74200000000000000000008152600083516138b0816017850160208801613bf4565b7f206973206d697373696e6720726f6c652000000000000000000000000000000060179184019182015283516138ed816028840160208801613bf4565b01602801949350505050565b60ff60f81b8360f81b1681526000825161391a816001850160208701613bf4565b919091016001019392505050565b60006001600160a01b0380871683528086166020840152508360408301526080606083015261395a608083018461360d565b9695505050505050565b6001600160a01b038416815282602082015260606040820152600061386f60608301846136a2565b6020808252825182820181905260009190848201906040850190845b818110156139c4578351835292840192918401916001016139a8565b50909695505050505050565b602081526000612ff4602083018461360d565b602081526000610bdc602083018486613679565b602081526000612ff460208301846136a2565b8481526001600160a01b03841660208201526080604082015260008335601e19853603018112613a38578182fd5b8401803567ffffffffffffffff811115613a50578283fd5b803603861315613a5e578283fd5b608080850152613a7661010085018260208501613679565b915050613a85602086016132c4565b60ff1660a0840152613a9960408601613275565b613aa660c0850182613669565b50613ab360608601613261565b613ac060e0850182613655565b5060609290920192909252949350505050565b83815260406020820152600061386f604083018486613679565b60008219821115613b0057613b00613ca1565b500190565b600082613b1457613b14613cb7565b500490565b6000816000190483118215151615613b3357613b33613ca1565b500290565b600082821015613b4a57613b4a613ca1565b500390565b600060808236031215613b60578081fd5b6040516080810167ffffffffffffffff8282108183111715613b8457613b84613ce3565b816040528435915080821115613b98578384fd5b50830136601f820112613ba9578283fd5b613bb8368235602084016131cc565b825250613bc7602084016132c4565b6020820152613bd860408401613275565b6040820152613be960608401613261565b606082015292915050565b60005b83811015613c0f578181015183820152602001613bf7565b838111156114115750506000910152565b600081613c2f57613c2f613ca1565b506000190190565b600181811c90821680613c4b57607f821691505b60208210811415613c6c57634e487b7160e01b600052602260045260246000fd5b50919050565b6000600019821415613c8657613c86613ca1565b5060010190565b600082613c9c57613c9c613cb7565b500690565b634e487b7160e01b600052601160045260246000fd5b634e487b7160e01b600052601260045260246000fd5b634e487b7160e01b600052602160045260246000fd5b634e487b7160e01b600052604160045260246000fd5b6001600160a01b0381168114611b3c57600080fd5b8015158114611b3c57600080fd5b6001600160e01b031981168114611b3c57600080fdfea164736f6c6343000804000ab19546dff01e856fb3f010c267a7b1c60363cf8a4664e21cc89c26224620214e68747470733a2f2f6170692d746573742e676f6c646d696e65726e66742e78797a2f6368617261637465722f6d657461646174612f",
  "linkReferences": {},
  "deployedLinkReferences": {}
}