{
  "_format": "hh-sol-artifact-1",
  "contractName": "GMNCharacterShop",
  "sourceName": "contracts/GMNCharacterShop.sol",
  "abi": [
    {
      "inputs": [
        {
          "internalType": "address",
          "name": "_GMNC",
          "type": "address"
        },
        {
          "internalType": "address",
          "name": "_currency",
          "type": "address"
        }
      ],
      "stateMutability": "nonpayable",
      "type": "constructor"
    },
    {
      "anonymous": false,
      "inputs": [
        {
          "indexed": true,
          "internalType": "bytes32",
          "name": "role",
          "type": "bytes32"
        },
        {
          "indexed": true,
          "internalType": "bytes32",
          "name": "previousAdminRole",
          "type": "bytes32"
        },
        {
          "indexed": true,
          "internalType": "bytes32",
          "name": "newAdminRole",
          "type": "bytes32"
        }
      ],
      "name": "RoleAdminChanged",
      "type": "event"
    },
    {
      "anonymous": false,
      "inputs": [
        {
          "indexed": true,
          "internalType": "bytes32",
          "name": "role",
          "type": "bytes32"
        },
        {
          "indexed": true,
          "internalType": "address",
          "name": "account",
          "type": "address"
        },
        {
          "indexed": true,
          "internalType": "address",
          "name": "sender",
          "type": "address"
        }
      ],
      "name": "RoleGranted",
      "type": "event"
    },
    {
      "anonymous": false,
      "inputs": [
        {
          "indexed": true,
          "internalType": "bytes32",
          "name": "role",
          "type": "bytes32"
        },
        {
          "indexed": true,
          "internalType": "address",
          "name": "account",
          "type": "address"
        },
        {
          "indexed": true,
          "internalType": "address",
          "name": "sender",
          "type": "address"
        }
      ],
      "name": "RoleRevoked",
      "type": "event"
    },
    {
      "anonymous": false,
      "inputs": [
        {
          "indexed": false,
          "internalType": "address",
          "name": "currency",
          "type": "address"
        }
      ],
      "name": "SetCurrency",
      "type": "event"
    },
    {
      "anonymous": false,
      "inputs": [
        {
          "indexed": false,
          "internalType": "uint256[]",
          "name": "newItemIds",
          "type": "uint256[]"
        },
        {
          "indexed": false,
          "internalType": "address",
          "name": "player",
          "type": "address"
        },
        {
          "components": [
            {
              "internalType": "string",
              "name": "name",
              "type": "string"
            },
            {
              "internalType": "uint8",
              "name": "kind",
              "type": "uint8"
            },
            {
              "internalType": "enum IGMNCharacter.Sex",
              "name": "sex",
              "type": "uint8"
            },
            {
              "internalType": "enum IGMNCharacter.Rarity",
              "name": "rarity",
              "type": "uint8"
            }
          ],
          "indexed": false,
          "internalType": "struct IGMNCharacter.CharacterInfo[]",
          "name": "characters",
          "type": "tuple[]"
        },
        {
          "indexed": false,
          "internalType": "uint256[]",
          "name": "prices",
          "type": "uint256[]"
        },
        {
          "indexed": false,
          "internalType": "uint256",
          "name": "expire",
          "type": "uint256"
        },
        {
          "indexed": false,
          "internalType": "bytes",
          "name": "signature",
          "type": "bytes"
        }
      ],
      "name": "Sold",
      "type": "event"
    },
    {
      "inputs": [],
      "name": "DEFAULT_ADMIN_ROLE",
      "outputs": [
        {
          "internalType": "bytes32",
          "name": "",
          "type": "bytes32"
        }
      ],
      "stateMutability": "view",
      "type": "function"
    },
    {
      "inputs": [],
      "name": "GMNCharacter",
      "outputs": [
        {
          "internalType": "contract IGMNCharacter",
          "name": "",
          "type": "address"
        }
      ],
      "stateMutability": "view",
      "type": "function"
    },
    {
      "inputs": [],
      "name": "MINTER_ROLE",
      "outputs": [
        {
          "internalType": "bytes32",
          "name": "",
          "type": "bytes32"
        }
      ],
      "stateMutability": "view",
      "type": "function"
    },
    {
      "inputs": [],
      "name": "OWNER_ROLE",
      "outputs": [
        {
          "internalType": "bytes32",
          "name": "",
          "type": "bytes32"
        }
      ],
      "stateMutability": "view",
      "type": "function"
    },
    {
      "inputs": [],
      "name": "TOKEN",
      "outputs": [
        {
          "internalType": "contract IERC20",
          "name": "",
          "type": "address"
        }
      ],
      "stateMutability": "view",
      "type": "function"
    },
    {
      "inputs": [
        {
          "components": [
            {
              "internalType": "string",
              "name": "name",
              "type": "string"
            },
            {
              "internalType": "uint8",
              "name": "kind",
              "type": "uint8"
            },
            {
              "internalType": "enum IGMNCharacter.Sex",
              "name": "sex",
              "type": "uint8"
            },
            {
              "internalType": "enum IGMNCharacter.Rarity",
              "name": "rarity",
              "type": "uint8"
            }
          ],
          "internalType": "struct IGMNCharacter.CharacterInfo[]",
          "name": "characters",
          "type": "tuple[]"
        },
        {
          "internalType": "uint256[]",
          "name": "prices",
          "type": "uint256[]"
        },
        {
          "internalType": "bytes[]",
          "name": "buySigs",
          "type": "bytes[]"
        },
        {
          "internalType": "uint256",
          "name": "expire",
          "type": "uint256"
        },
        {
          "internalType": "bytes",
          "name": "signature",
          "type": "bytes"
        }
      ],
      "name": "buy",
      "outputs": [
        {
          "internalType": "uint256[]",
          "name": "newItemIds",
          "type": "uint256[]"
        }
      ],
      "stateMutability": "payable",
      "type": "function"
    },
    {
      "inputs": [
        {
          "internalType": "address",
          "name": "token",
          "type": "address"
        },
        {
          "internalType": "uint256",
          "name": "amount",
          "type": "uint256"
        },
        {
          "internalType": "address",
          "name": "sendTo",
          "type": "address"
        }
      ],
      "name": "forceReturnERC20",
      "outputs": [],
      "stateMutability": "nonpayable",
      "type": "function"
    },
    {
      "inputs": [
        {
          "internalType": "address",
          "name": "sendTo",
          "type": "address"
        },
        {
          "internalType": "address",
          "name": "token",
          "type": "address"
        },
        {
          "internalType": "uint256",
          "name": "tokenId",
          "type": "uint256"
        }
      ],
      "name": "forceReturnERC721",
      "outputs": [],
      "stateMutability": "nonpayable",
      "type": "function"
    },
    {
      "inputs": [
        {
          "internalType": "uint256",
          "name": "amount",
          "type": "uint256"
        },
        {
          "internalType": "address payable",
          "name": "sendTo",
          "type": "address"
        }
      ],
      "name": "forceReturnNative",
      "outputs": [],
      "stateMutability": "nonpayable",
      "type": "function"
    },
    {
      "inputs": [
        {
          "internalType": "bytes32",
          "name": "role",
          "type": "bytes32"
        }
      ],
      "name": "getRoleAdmin",
      "outputs": [
        {
          "internalType": "bytes32",
          "name": "",
          "type": "bytes32"
        }
      ],
      "stateMutability": "view",
      "type": "function"
    },
    {
      "inputs": [
        {
          "internalType": "bytes32",
          "name": "role",
          "type": "bytes32"
        },
        {
          "internalType": "address",
          "name": "account",
          "type": "address"
        }
      ],
      "name": "grantRole",
      "outputs": [],
      "stateMutability": "nonpayable",
      "type": "function"
    },
    {
      "inputs": [
        {
          "internalType": "bytes32",
          "name": "role",
          "type": "bytes32"
        },
        {
          "internalType": "address",
          "name": "account",
          "type": "address"
        }
      ],
      "name": "hasRole",
      "outputs": [
        {
          "internalType": "bool",
          "name": "",
          "type": "bool"
        }
      ],
      "stateMutability": "view",
      "type": "function"
    },
    {
      "inputs": [
        {
          "internalType": "bytes32",
          "name": "role",
          "type": "bytes32"
        },
        {
          "internalType": "address",
          "name": "account",
          "type": "address"
        }
      ],
      "name": "renounceRole",
      "outputs": [],
      "stateMutability": "nonpayable",
      "type": "function"
    },
    {
      "inputs": [
        {
          "internalType": "bytes32",
          "name": "role",
          "type": "bytes32"
        },
        {
          "internalType": "address",
          "name": "account",
          "type": "address"
        }
      ],
      "name": "revokeRole",
      "outputs": [],
      "stateMutability": "nonpayable",
      "type": "function"
    },
    {
      "inputs": [
        {
          "internalType": "address",
          "name": "_currency",
          "type": "address"
        }
      ],
      "name": "setCurrency",
      "outputs": [],
      "stateMutability": "nonpayable",
      "type": "function"
    },
    {
      "inputs": [
        {
          "internalType": "bytes4",
          "name": "interfaceId",
          "type": "bytes4"
        }
      ],
      "name": "supportsInterface",
      "outputs": [
        {
          "internalType": "bool",
          "name": "",
          "type": "bool"
        }
      ],
      "stateMutability": "view",
      "type": "function"
    },
    {
      "inputs": [
        {
          "components": [
            {
              "internalType": "string",
              "name": "name",
              "type": "string"
            },
            {
              "internalType": "uint8",
              "name": "kind",
              "type": "uint8"
            },
            {
              "internalType": "enum IGMNCharacter.Sex",
              "name": "sex",
              "type": "uint8"
            },
            {
              "internalType": "enum IGMNCharacter.Rarity",
              "name": "rarity",
              "type": "uint8"
            }
          ],
          "internalType": "struct IGMNCharacter.CharacterInfo[]",
          "name": "characters",
          "type": "tuple[]"
        },
        {
          "internalType": "uint256[]",
          "name": "prices",
          "type": "uint256[]"
        },
        {
          "internalType": "bytes[]",
          "name": "buySigs",
          "type": "bytes[]"
        },
        {
          "internalType": "uint256",
          "name": "expire",
          "type": "uint256"
        },
        {
          "internalType": "bytes",
          "name": "signature",
          "type": "bytes"
        }
      ],
      "name": "verifySignature",
      "outputs": [
        {
          "internalType": "bool",
          "name": "",
          "type": "bool"
        }
      ],
      "stateMutability": "view",
      "type": "function"
    },
    {
      "stateMutability": "payable",
      "type": "receive"
    }
  ],
  "bytecode": "0x60806040523480156200001157600080fd5b50604051620023a3380380620023a3833981016040819052620000349162000273565b600180546001600160a01b03199081166001600160a01b038581169182179093556002805490921692841692831790915560405163095ea7b360e01b81526004810191909152600019602482015263095ea7b390604401602060405180830381600087803b158015620000a657600080fd5b505af1158015620000bb573d6000803e3d6000fd5b505050506040513d601f19601f82011682018060405250810190620000e19190620002aa565b506200011d7f9f2df0fed2c77648de5860a4cc508cd0818c85b8b8a1ab4ceeef8d981c8956a6600080516020620023838339815191526200015b565b6200013860008051602062002383833981519152806200015b565b620001536000805160206200238383398151915233620001a6565b5050620002d3565b600082815260208190526040808220600101805490849055905190918391839186917fbd79b86ffe0ab8e8776151514217cd7cacd52c909f66475c3af44e129f0b00ff9190a4505050565b620001b28282620001b6565b5050565b6000828152602081815260408083206001600160a01b038516845290915290205460ff16620001b2576000828152602081815260408083206001600160a01b03851684529091529020805460ff19166001179055620002123390565b6001600160a01b0316816001600160a01b0316837f2f8788117e7eff1d82e926ec794901d17c78024a50270940304540a733656f0d60405160405180910390a45050565b80516001600160a01b03811681146200026e57600080fd5b919050565b6000806040838503121562000286578182fd5b620002918362000256565b9150620002a16020840162000256565b90509250929050565b600060208284031215620002bc578081fd5b81518015158114620002cc578182fd5b9392505050565b6120a080620002e36000396000f3fe6080604052600436106101125760003560e01c806382bfefc8116100a5578063a40d257311610074578063d539139311610059578063d539139314610344578063d547741f14610378578063e58378bb1461039857600080fd5b8063a40d257314610304578063aab057171461032457600080fd5b806382bfefc814610253578063910779491461028b57806391d14854146102ab578063a217fddf146102ef57600080fd5b806336568abe116100e157806336568abe146101d35780634977182b146101f3578063529ad7a31461021357806374b226471461023357600080fd5b806301ffc9a71461011e578063248a9ca3146101535780632f2ff15d146101915780632f84c391146101b357600080fd5b3661011957005b600080fd5b34801561012a57600080fd5b5061013e610139366004611a5f565b6103cc565b60405190151581526020015b60405180910390f35b34801561015f57600080fd5b5061018361016e366004611a18565b60009081526020819052604090206001015490565b60405190815260200161014a565b34801561019d57600080fd5b506101b16101ac366004611a30565b610403565b005b3480156101bf57600080fd5b506101b16101ce36600461182a565b61042d565b3480156101df57600080fd5b506101b16101ee366004611a30565b6104c4565b3480156101ff57600080fd5b506101b161020e366004611846565b610555565b34801561021f57600080fd5b5061013e61022e3660046118c7565b6105ed565b34801561023f57600080fd5b506101b161024e366004611a30565b6106ec565b34801561025f57600080fd5b50600254610273906001600160a01b031681565b6040516001600160a01b03909116815260200161014a565b61029e6102993660046118c7565b6107bf565b60405161014a9190611e21565b3480156102b757600080fd5b5061013e6102c6366004611a30565b6000918252602082815260408084206001600160a01b0393909316845291905290205460ff1690565b3480156102fb57600080fd5b50610183600081565b34801561031057600080fd5b50600154610273906001600160a01b031681565b34801561033057600080fd5b506101b161033f366004611886565b610d2c565b34801561035057600080fd5b506101837f9f2df0fed2c77648de5860a4cc508cd0818c85b8b8a1ab4ceeef8d981c8956a681565b34801561038457600080fd5b506101b1610393366004611a30565b610ddf565b3480156103a457600080fd5b506101837fb19546dff01e856fb3f010c267a7b1c60363cf8a4664e21cc89c26224620214e81565b60006001600160e01b03198216637965db0b60e01b14806103fd57506301ffc9a760e01b6001600160e01b03198316145b92915050565b60008281526020819052604090206001015461041e81610e04565b6104288383610e11565b505050565b7fb19546dff01e856fb3f010c267a7b1c60363cf8a4664e21cc89c26224620214e61045781610e04565b600280547fffffffffffffffffffffffff0000000000000000000000000000000000000000166001600160a01b0384169081179091556040519081527fabafa9c1e6fed9b333f964bb84ed729c36b3152a843ae96a671ebc95742de6e69060200160405180910390a15050565b6001600160a01b03811633146105475760405162461bcd60e51b815260206004820152602f60248201527f416363657373436f6e74726f6c3a2063616e206f6e6c792072656e6f756e636560448201527f20726f6c657320666f722073656c66000000000000000000000000000000000060648201526084015b60405180910390fd5b6105518282610eaf565b5050565b7fb19546dff01e856fb3f010c267a7b1c60363cf8a4664e21cc89c26224620214e61057f81610e04565b6040516323b872dd60e01b81523060048201526001600160a01b038581166024830152604482018490528416906323b872dd90606401600060405180830381600087803b1580156105cf57600080fd5b505af11580156105e3573d6000803e3d6000fd5b5050505050505050565b60008060006105fe8b8b8989610f2e565b91509150600033838b8b858a306040516020016106219796959493929190611c65565b6040516020818303038152906040528051906020012090506000610692826040517f19457468657265756d205369676e6564204d6573736167653a0a3332000000006020820152603c8101829052600090605c01604051602081830303815290604052805190602001209050919050565b905060006106a08288611287565b6001600160a01b031660009081527f0781d7cac9c378efa22a7481e4d4d29704a680ddf504b3bc50b517700ee11e6c602052604090205460ff169e9d5050505050505050505050505050565b7fb19546dff01e856fb3f010c267a7b1c60363cf8a4664e21cc89c26224620214e61071681610e04565b6000826001600160a01b03168460405160006040518083038185875af1925050503d8060008114610763576040519150601f19603f3d011682016040523d82523d6000602084013e610768565b606091505b50509050806107b95760405162461bcd60e51b815260206004820152600f60248201527f7769746864726177206661696c65640000000000000000000000000000000000604482015260640161053e565b50505050565b6060878681146108115760405162461bcd60e51b815260206004820181905260248201527f43686172616374657253686f703a3a6d697373206d6174636820707269636573604482015260640161053e565b428410156108615760405162461bcd60e51b815260206004820181905260248201527f43686172616374657253686f703a3a7369676e61747572652065787069726564604482015260640161053e565b6003836040516108719190611d0f565b9081526040519081900360200190205460ff16156108f75760405162461bcd60e51b815260206004820152602660248201527f43686172616374657253686f703a3a7369676e6174757265206861732062656560448201527f6e20757365640000000000000000000000000000000000000000000000000000606482015260840161053e565b60016003846040516109099190611d0f565b908152604051908190036020019020805491151560ff199092169190911790556109398a8a8a8a8a8a8a8a6105ed565b6109855760405162461bcd60e51b815260206004820152601e60248201527f43686172616374657253686f703a3a77726f6e67207369676e61747572650000604482015260640161053e565b6000805b828110156109d7578989828181106109b157634e487b7160e01b600052603260045260246000fd5b90506020020135826109c39190611fa7565b9150806109cf81612021565b915050610989565b506002546040516323b872dd60e01b8152336004820152306024820152604481018390526000916001600160a01b0316906323b872dd90606401602060405180830381600087803b158015610a2b57600080fd5b505af1158015610a3f573d6000803e3d6000fd5b505050506040513d601f19601f82011682018060405250810190610a6391906119f8565b905080610ab25760405162461bcd60e51b815260206004820152601560248201527f63616e6e6f74207472616e736665722045524332300000000000000000000000604482015260640161053e565b8267ffffffffffffffff811115610ad957634e487b7160e01b600052604160045260246000fd5b604051908082528060200260200182016040528015610b02578160200160208202803683370190505b50935060005b83811015610cd7576001546000906001600160a01b031663137151838f8f85818110610b4457634e487b7160e01b600052603260045260246000fd5b9050602002810190610b569190611f92565b8e8e86818110610b7657634e487b7160e01b600052603260045260246000fd5b90506020020135858c610b899190611fa7565b8e8e88818110610ba957634e487b7160e01b600052603260045260246000fd5b9050602002810190610bbb9190611f4d565b6040518663ffffffff1660e01b8152600401610bdb959493929190611f0f565b602060405180830381600087803b158015610bf557600080fd5b505af1158015610c09573d6000803e3d6000fd5b505050506040513d601f19601f82011682018060405250810190610c2d9190611abb565b6001546040516323b872dd60e01b8152306004820152336024820152604481018390529192506001600160a01b0316906323b872dd90606401600060405180830381600087803b158015610c8057600080fd5b505af1158015610c94573d6000803e3d6000fd5b5050505080868381518110610cb957634e487b7160e01b600052603260045260246000fd5b60209081029190910101525080610ccf81612021565b915050610b08565b507ff70a2c0554c915fd9b6d8e9d39e2599240c7d507875a6ddd57e6930297af53a584338e8e8e8e8c8c604051610d15989796959493929190611e34565b60405180910390a150505098975050505050505050565b7fb19546dff01e856fb3f010c267a7b1c60363cf8a4664e21cc89c26224620214e610d5681610e04565b60405163a9059cbb60e01b81526001600160a01b0383811660048301526024820185905285169063a9059cbb90604401602060405180830381600087803b158015610da057600080fd5b505af1158015610db4573d6000803e3d6000fd5b505050506040513d601f19601f82011682018060405250810190610dd891906119f8565b5050505050565b600082815260208190526040902060010154610dfa81610e04565b6104288383610eaf565b610e0e81336112ab565b50565b6000828152602081815260408083206001600160a01b038516845290915290205460ff16610551576000828152602081815260408083206001600160a01b03851684529091529020805460ff19166001179055610e6b3390565b6001600160a01b0316816001600160a01b0316837f2f8788117e7eff1d82e926ec794901d17c78024a50270940304540a733656f0d60405160405180910390a45050565b6000828152602081815260408083206001600160a01b038516845290915290205460ff1615610551576000828152602081815260408083206001600160a01b0385168085529252808320805460ff1916905551339285917ff6391f5c32d9c69d2a47ea670b442974b53935d1edc7fd64eb21e047a839171b9190a45050565b60008084838114610f815760405162461bcd60e51b815260206004820152600f60248201527f6d697373206d6174636820736967730000000000000000000000000000000000604482015260640161053e565b60008167ffffffffffffffff811115610faa57634e487b7160e01b600052604160045260246000fd5b604051908082528060200260200182016040528015610fd3578160200160208202803683370190505b50905060008267ffffffffffffffff811115610fff57634e487b7160e01b600052604160045260246000fd5b604051908082528060200260200182016040528015611028578160200160208202803683370190505b50905060005b838110156112275789898281811061105657634e487b7160e01b600052603260045260246000fd5b90506020028101906110689190611f92565b6110729080611f4d565b8b8b8481811061109257634e487b7160e01b600052603260045260246000fd5b90506020028101906110a49190611f92565b6110b5906040810190602001611ad3565b8c8c858181106110d557634e487b7160e01b600052603260045260246000fd5b90506020028101906110e79190611f92565b6110f8906060810190604001611aa1565b8d8d8681811061111857634e487b7160e01b600052603260045260246000fd5b905060200281019061112a9190611f92565b61113b906080810190606001611a87565b60405160200161114f959493929190611d2b565b6040516020818303038152906040528051906020012083828151811061118557634e487b7160e01b600052603260045260246000fd5b6020026020010181815250508787828181106111b157634e487b7160e01b600052603260045260246000fd5b90506020028101906111c39190611f4d565b6040516020016111d4929190611cff565b6040516020818303038152906040528051906020012082828151811061120a57634e487b7160e01b600052603260045260246000fd5b60209081029190910101528061121f81612021565b91505061102e565b50816040516020016112399190611cc9565b604051602081830303815290604052805190602001209450806040516020016112629190611cc9565b6040516020818303038152906040528051906020012093505050505b94509492505050565b6000806000611296858561131e565b915091506112a381611364565b509392505050565b6000828152602081815260408083206001600160a01b038516845290915290205460ff16610551576112dc816114ea565b6112e78360206114fc565b6040516020016112f8929190611da0565b60408051601f198184030181529082905262461bcd60e51b825261053e91600401611efc565b6000808251604114156113555760208301516040840151606085015160001a611349878285856116f2565b9450945050505061135d565b506000905060025b9250929050565b600081600481111561138657634e487b7160e01b600052602160045260246000fd5b141561138f5750565b60018160048111156113b157634e487b7160e01b600052602160045260246000fd5b14156113ff5760405162461bcd60e51b815260206004820152601860248201527f45434453413a20696e76616c6964207369676e61747572650000000000000000604482015260640161053e565b600281600481111561142157634e487b7160e01b600052602160045260246000fd5b141561146f5760405162461bcd60e51b815260206004820152601f60248201527f45434453413a20696e76616c6964207369676e6174757265206c656e67746800604482015260640161053e565b600381600481111561149157634e487b7160e01b600052602160045260246000fd5b1415610e0e5760405162461bcd60e51b815260206004820152602260248201527f45434453413a20696e76616c6964207369676e6174757265202773272076616c604482015261756560f01b606482015260840161053e565b60606103fd6001600160a01b03831660145b6060600061150b836002611fbf565b611516906002611fa7565b67ffffffffffffffff81111561153c57634e487b7160e01b600052604160045260246000fd5b6040519080825280601f01601f191660200182016040528015611566576020820181803683370190505b509050600360fc1b8160008151811061158f57634e487b7160e01b600052603260045260246000fd5b60200101906001600160f81b031916908160001a905350600f60fb1b816001815181106115cc57634e487b7160e01b600052603260045260246000fd5b60200101906001600160f81b031916908160001a90535060006115f0846002611fbf565b6115fb906001611fa7565b90505b600181111561169c577f303132333435363738396162636465660000000000000000000000000000000085600f166010811061164a57634e487b7160e01b600052603260045260246000fd5b1a60f81b82828151811061166e57634e487b7160e01b600052603260045260246000fd5b60200101906001600160f81b031916908160001a90535060049490941c936116958161200a565b90506115fe565b5083156116eb5760405162461bcd60e51b815260206004820181905260248201527f537472696e67733a20686578206c656e67746820696e73756666696369656e74604482015260640161053e565b9392505050565b6000807f7fffffffffffffffffffffffffffffff5d576e7357a4501ddfe92f46681b20a0831115611729575060009050600361127e565b6040805160008082526020820180845289905260ff881692820192909252606081018690526080810185905260019060a0016020604051602081039080840390855afa15801561177d573d6000803e3d6000fd5b5050604051601f1901519150506001600160a01b0381166117a65760006001925092505061127e565b9660009650945050505050565b60008083601f8401126117c4578081fd5b50813567ffffffffffffffff8111156117db578182fd5b6020830191508360208260051b850101111561135d57600080fd5b80356004811061180557600080fd5b919050565b80356002811061180557600080fd5b803560ff8116811461180557600080fd5b60006020828403121561183b578081fd5b81356116eb8161207e565b60008060006060848603121561185a578182fd5b83356118658161207e565b925060208401356118758161207e565b929592945050506040919091013590565b60008060006060848603121561189a578283fd5b83356118a58161207e565b92506020840135915060408401356118bc8161207e565b809150509250925092565b60008060008060008060008060a0898b0312156118e2578384fd5b883567ffffffffffffffff808211156118f9578586fd5b6119058c838d016117b3565b909a50985060208b013591508082111561191d578586fd5b6119298c838d016117b3565b909850965060408b0135915080821115611941578586fd5b61194d8c838d016117b3565b909650945060608b0135935060808b013591508082111561196c578283fd5b818b0191508b601f83011261197f578283fd5b81358181111561199157611991612068565b604051601f8201601f19908116603f011681019083821181831017156119b9576119b9612068565b816040528281528e60208487010111156119d1578586fd5b82602086016020830137856020848301015280955050505050509295985092959890939650565b600060208284031215611a09578081fd5b815180151581146116eb578182fd5b600060208284031215611a29578081fd5b5035919050565b60008060408385031215611a42578182fd5b823591506020830135611a548161207e565b809150509250929050565b600060208284031215611a70578081fd5b81356001600160e01b0319811681146116eb578182fd5b600060208284031215611a98578081fd5b6116eb826117f6565b600060208284031215611ab2578081fd5b6116eb8261180a565b600060208284031215611acc578081fd5b5051919050565b600060208284031215611ae4578081fd5b6116eb82611819565b81835260006001600160fb1b03831115611b05578081fd5b8260051b80836020870137939093016020019283525090919050565b6000815180845260208085019450808401835b83811015611b5057815187529582019590820190600101611b34565b509495945050505050565b81835281816020850137506000828201602090810191909152601f909101601f19169091010190565b60008151808452611b9c816020860160208601611fde565b601f01601f19169290920160200192915050565b60048110611bc057611bc0612052565b9052565b60008135601e19833603018112611bd9578182fd5b8201803567ffffffffffffffff811115611bf1578283fd5b803603841315611bff578283fd5b60808552611c14608086018260208501611b5b565b91505060ff611c2560208501611819565b166020850152611c376040840161180a565b60028110611c4757611c47612052565b6040850152611c58606084016117f6565b6112a36060860182611bb0565b60006bffffffffffffffffffffffff19808a60601b1683528860148401526001600160fb1b03871115611c96578182fd5b8660051b80896034860137909201603481019590955250605484019290925260601b166074820152608801949350505050565b815160009082906020808601845b83811015611cf357815185529382019390820190600101611cd7565b50929695505050505050565b8183823760009101908152919050565b60008251611d21818460208701611fde565b9190910192915050565b8486823760f884901b7fff000000000000000000000000000000000000000000000000000000000000001681860190815260009060028510611d6f57611d6f612052565b8460f81b600182015260048410611d8857611d88612052565b60f89390931b60028401525050600301949350505050565b7f416363657373436f6e74726f6c3a206163636f756e7420000000000000000000815260008351611dd8816017850160208801611fde565b7f206973206d697373696e6720726f6c65200000000000000000000000000000006017918401918201528351611e15816028840160208801611fde565b01602801949350505050565b6020815260006116eb6020830184611b21565b60c081526000611e4760c083018b611b21565b6001600160a01b038a16602084015282810360408401528088825260208201905060208960051b8301018a845b8b811015611ebc57848303601f190184528135368e9003607e19018112611e99578687fd5b611ea5848f8301611bc4565b602095860195909450929092019150600101611e74565b50508481036060860152611ed181898b611aed565b9250505084608084015282810360a0840152611eed8185611b84565b9b9a5050505050505050505050565b6020815260006116eb6020830184611b84565b608081526000611f226080830188611bc4565b8660208401528560408401528281036060840152611f41818587611b5b565b98975050505050505050565b6000808335601e19843603018112611f63578283fd5b83018035915067ffffffffffffffff821115611f7d578283fd5b60200191503681900382131561135d57600080fd5b60008235607e19833603018112611d21578182fd5b60008219821115611fba57611fba61203c565b500190565b6000816000190483118215151615611fd957611fd961203c565b500290565b60005b83811015611ff9578181015183820152602001611fe1565b838111156107b95750506000910152565b6000816120195761201961203c565b506000190190565b60006000198214156120355761203561203c565b5060010190565b634e487b7160e01b600052601160045260246000fd5b634e487b7160e01b600052602160045260246000fd5b634e487b7160e01b600052604160045260246000fd5b6001600160a01b0381168114610e0e57600080fdfea164736f6c6343000804000ab19546dff01e856fb3f010c267a7b1c60363cf8a4664e21cc89c26224620214e",
  "linkReferences": {},
  "deployedLinkReferences": {}
}