{
  "_format": "hh-sol-artifact-1",
  "contractName": "GMNMachineShop",
  "sourceName": "contracts/GMNMachineShop.sol",
  "abi": [
    {
      "inputs": [
        {
          "internalType": "address",
          "name": "_GMNM",
          "type": "address"
        },
        {
          "internalType": "address",
          "name": "_currency",
          "type": "address"
        }
      ],
      "stateMutability": "nonpayable",
      "type": "constructor"
    },
    {
      "anonymous": false,
      "inputs": [
        {
          "indexed": true,
          "internalType": "bytes32",
          "name": "role",
          "type": "bytes32"
        },
        {
          "indexed": true,
          "internalType": "bytes32",
          "name": "previousAdminRole",
          "type": "bytes32"
        },
        {
          "indexed": true,
          "internalType": "bytes32",
          "name": "newAdminRole",
          "type": "bytes32"
        }
      ],
      "name": "RoleAdminChanged",
      "type": "event"
    },
    {
      "anonymous": false,
      "inputs": [
        {
          "indexed": true,
          "internalType": "bytes32",
          "name": "role",
          "type": "bytes32"
        },
        {
          "indexed": true,
          "internalType": "address",
          "name": "account",
          "type": "address"
        },
        {
          "indexed": true,
          "internalType": "address",
          "name": "sender",
          "type": "address"
        }
      ],
      "name": "RoleGranted",
      "type": "event"
    },
    {
      "anonymous": false,
      "inputs": [
        {
          "indexed": true,
          "internalType": "bytes32",
          "name": "role",
          "type": "bytes32"
        },
        {
          "indexed": true,
          "internalType": "address",
          "name": "account",
          "type": "address"
        },
        {
          "indexed": true,
          "internalType": "address",
          "name": "sender",
          "type": "address"
        }
      ],
      "name": "RoleRevoked",
      "type": "event"
    },
    {
      "anonymous": false,
      "inputs": [
        {
          "indexed": false,
          "internalType": "address",
          "name": "currency",
          "type": "address"
        }
      ],
      "name": "SetCurrency",
      "type": "event"
    },
    {
      "anonymous": false,
      "inputs": [
        {
          "indexed": false,
          "internalType": "uint256[]",
          "name": "newItemIds",
          "type": "uint256[]"
        },
        {
          "indexed": false,
          "internalType": "address",
          "name": "player",
          "type": "address"
        },
        {
          "components": [
            {
              "internalType": "string",
              "name": "name",
              "type": "string"
            },
            {
              "internalType": "uint8",
              "name": "kind",
              "type": "uint8"
            },
            {
              "internalType": "enum IGMNMachine.Rarity",
              "name": "rarity",
              "type": "uint8"
            }
          ],
          "indexed": false,
          "internalType": "struct IGMNMachine.MachineInfo[]",
          "name": "machines",
          "type": "tuple[]"
        },
        {
          "indexed": false,
          "internalType": "uint256[]",
          "name": "prices",
          "type": "uint256[]"
        },
        {
          "indexed": false,
          "internalType": "uint256",
          "name": "expire",
          "type": "uint256"
        },
        {
          "indexed": false,
          "internalType": "bytes",
          "name": "signature",
          "type": "bytes"
        }
      ],
      "name": "Sold",
      "type": "event"
    },
    {
      "inputs": [],
      "name": "DEFAULT_ADMIN_ROLE",
      "outputs": [
        {
          "internalType": "bytes32",
          "name": "",
          "type": "bytes32"
        }
      ],
      "stateMutability": "view",
      "type": "function"
    },
    {
      "inputs": [],
      "name": "GMNMachine",
      "outputs": [
        {
          "internalType": "contract IGMNMachine",
          "name": "",
          "type": "address"
        }
      ],
      "stateMutability": "view",
      "type": "function"
    },
    {
      "inputs": [],
      "name": "MINTER_ROLE",
      "outputs": [
        {
          "internalType": "bytes32",
          "name": "",
          "type": "bytes32"
        }
      ],
      "stateMutability": "view",
      "type": "function"
    },
    {
      "inputs": [],
      "name": "OWNER_ROLE",
      "outputs": [
        {
          "internalType": "bytes32",
          "name": "",
          "type": "bytes32"
        }
      ],
      "stateMutability": "view",
      "type": "function"
    },
    {
      "inputs": [],
      "name": "TOKEN",
      "outputs": [
        {
          "internalType": "contract IERC20",
          "name": "",
          "type": "address"
        }
      ],
      "stateMutability": "view",
      "type": "function"
    },
    {
      "inputs": [
        {
          "components": [
            {
              "internalType": "string",
              "name": "name",
              "type": "string"
            },
            {
              "internalType": "uint8",
              "name": "kind",
              "type": "uint8"
            },
            {
              "internalType": "enum IGMNMachine.Rarity",
              "name": "rarity",
              "type": "uint8"
            }
          ],
          "internalType": "struct IGMNMachine.MachineInfo[]",
          "name": "machines",
          "type": "tuple[]"
        },
        {
          "internalType": "uint256[]",
          "name": "prices",
          "type": "uint256[]"
        },
        {
          "internalType": "bytes[]",
          "name": "buySigs",
          "type": "bytes[]"
        },
        {
          "internalType": "uint256",
          "name": "expire",
          "type": "uint256"
        },
        {
          "internalType": "bytes",
          "name": "signature",
          "type": "bytes"
        }
      ],
      "name": "buy",
      "outputs": [
        {
          "internalType": "uint256[]",
          "name": "newItemIds",
          "type": "uint256[]"
        }
      ],
      "stateMutability": "payable",
      "type": "function"
    },
    {
      "inputs": [
        {
          "internalType": "address",
          "name": "token",
          "type": "address"
        },
        {
          "internalType": "uint256",
          "name": "amount",
          "type": "uint256"
        },
        {
          "internalType": "address",
          "name": "sendTo",
          "type": "address"
        }
      ],
      "name": "forceReturnERC20",
      "outputs": [],
      "stateMutability": "nonpayable",
      "type": "function"
    },
    {
      "inputs": [
        {
          "internalType": "address",
          "name": "sendTo",
          "type": "address"
        },
        {
          "internalType": "address",
          "name": "token",
          "type": "address"
        },
        {
          "internalType": "uint256",
          "name": "tokenId",
          "type": "uint256"
        }
      ],
      "name": "forceReturnERC721",
      "outputs": [],
      "stateMutability": "nonpayable",
      "type": "function"
    },
    {
      "inputs": [
        {
          "internalType": "uint256",
          "name": "amount",
          "type": "uint256"
        },
        {
          "internalType": "address payable",
          "name": "sendTo",
          "type": "address"
        }
      ],
      "name": "forceReturnNative",
      "outputs": [],
      "stateMutability": "nonpayable",
      "type": "function"
    },
    {
      "inputs": [
        {
          "internalType": "bytes32",
          "name": "role",
          "type": "bytes32"
        }
      ],
      "name": "getRoleAdmin",
      "outputs": [
        {
          "internalType": "bytes32",
          "name": "",
          "type": "bytes32"
        }
      ],
      "stateMutability": "view",
      "type": "function"
    },
    {
      "inputs": [
        {
          "internalType": "bytes32",
          "name": "role",
          "type": "bytes32"
        },
        {
          "internalType": "address",
          "name": "account",
          "type": "address"
        }
      ],
      "name": "grantRole",
      "outputs": [],
      "stateMutability": "nonpayable",
      "type": "function"
    },
    {
      "inputs": [
        {
          "internalType": "bytes32",
          "name": "role",
          "type": "bytes32"
        },
        {
          "internalType": "address",
          "name": "account",
          "type": "address"
        }
      ],
      "name": "hasRole",
      "outputs": [
        {
          "internalType": "bool",
          "name": "",
          "type": "bool"
        }
      ],
      "stateMutability": "view",
      "type": "function"
    },
    {
      "inputs": [
        {
          "internalType": "bytes32",
          "name": "role",
          "type": "bytes32"
        },
        {
          "internalType": "address",
          "name": "account",
          "type": "address"
        }
      ],
      "name": "renounceRole",
      "outputs": [],
      "stateMutability": "nonpayable",
      "type": "function"
    },
    {
      "inputs": [
        {
          "internalType": "bytes32",
          "name": "role",
          "type": "bytes32"
        },
        {
          "internalType": "address",
          "name": "account",
          "type": "address"
        }
      ],
      "name": "revokeRole",
      "outputs": [],
      "stateMutability": "nonpayable",
      "type": "function"
    },
    {
      "inputs": [
        {
          "internalType": "address",
          "name": "_currency",
          "type": "address"
        }
      ],
      "name": "setCurrency",
      "outputs": [],
      "stateMutability": "nonpayable",
      "type": "function"
    },
    {
      "inputs": [
        {
          "internalType": "bytes4",
          "name": "interfaceId",
          "type": "bytes4"
        }
      ],
      "name": "supportsInterface",
      "outputs": [
        {
          "internalType": "bool",
          "name": "",
          "type": "bool"
        }
      ],
      "stateMutability": "view",
      "type": "function"
    },
    {
      "inputs": [
        {
          "components": [
            {
              "internalType": "string",
              "name": "name",
              "type": "string"
            },
            {
              "internalType": "uint8",
              "name": "kind",
              "type": "uint8"
            },
            {
              "internalType": "enum IGMNMachine.Rarity",
              "name": "rarity",
              "type": "uint8"
            }
          ],
          "internalType": "struct IGMNMachine.MachineInfo[]",
          "name": "machines",
          "type": "tuple[]"
        },
        {
          "internalType": "uint256[]",
          "name": "prices",
          "type": "uint256[]"
        },
        {
          "internalType": "bytes[]",
          "name": "buySigs",
          "type": "bytes[]"
        },
        {
          "internalType": "uint256",
          "name": "expire",
          "type": "uint256"
        },
        {
          "internalType": "bytes",
          "name": "signature",
          "type": "bytes"
        }
      ],
      "name": "verifySignature",
      "outputs": [
        {
          "internalType": "bool",
          "name": "",
          "type": "bool"
        }
      ],
      "stateMutability": "view",
      "type": "function"
    },
    {
      "stateMutability": "payable",
      "type": "receive"
    }
  ],
  "bytecode": "0x60806040523480156200001157600080fd5b50604051620022e3380380620022e3833981016040819052620000349162000273565b600180546001600160a01b03199081166001600160a01b038581169182179093556002805490921692841692831790915560405163095ea7b360e01b81526004810191909152600019602482015263095ea7b390604401602060405180830381600087803b158015620000a657600080fd5b505af1158015620000bb573d6000803e3d6000fd5b505050506040513d601f19601f82011682018060405250810190620000e19190620002aa565b506200011d7f9f2df0fed2c77648de5860a4cc508cd0818c85b8b8a1ab4ceeef8d981c8956a6600080516020620022c38339815191526200015b565b62000138600080516020620022c3833981519152806200015b565b62000153600080516020620022c383398151915233620001a6565b5050620002d3565b600082815260208190526040808220600101805490849055905190918391839186917fbd79b86ffe0ab8e8776151514217cd7cacd52c909f66475c3af44e129f0b00ff9190a4505050565b620001b28282620001b6565b5050565b6000828152602081815260408083206001600160a01b038516845290915290205460ff16620001b2576000828152602081815260408083206001600160a01b03851684529091529020805460ff19166001179055620002123390565b6001600160a01b0316816001600160a01b0316837f2f8788117e7eff1d82e926ec794901d17c78024a50270940304540a733656f0d60405160405180910390a45050565b80516001600160a01b03811681146200026e57600080fd5b919050565b6000806040838503121562000286578182fd5b620002918362000256565b9150620002a16020840162000256565b90509250929050565b600060208284031215620002bc578081fd5b81518015158114620002cc578182fd5b9392505050565b611fe080620002e36000396000f3fe6080604052600436106101125760003560e01c806391d14854116100a5578063aab0571711610074578063d539139311610059578063d539139314610344578063d547741f14610378578063e58378bb1461039857600080fd5b8063aab0571714610304578063c0a5e5f31461032457600080fd5b806391d148541461026b578063a217fddf146102af578063a35afa0f146102c4578063a8bfda7b146102e457600080fd5b806336568abe116100e157806336568abe146101d35780634977182b146101f357806374b226471461021357806382bfefc81461023357600080fd5b806301ffc9a71461011e578063248a9ca3146101535780632f2ff15d146101915780632f84c391146101b357600080fd5b3661011957005b600080fd5b34801561012a57600080fd5b5061013e6101393660046119f2565b6103cc565b60405190151581526020015b60405180910390f35b34801561015f57600080fd5b5061018361016e3660046119ab565b60009081526020819052604090206001015490565b60405190815260200161014a565b34801561019d57600080fd5b506101b16101ac3660046119c3565b610403565b005b3480156101bf57600080fd5b506101b16101ce3660046117bd565b61042d565b3480156101df57600080fd5b506101b16101ee3660046119c3565b6104c4565b3480156101ff57600080fd5b506101b161020e3660046117d9565b610555565b34801561021f57600080fd5b506101b161022e3660046119c3565b6105ed565b34801561023f57600080fd5b50600254610253906001600160a01b031681565b6040516001600160a01b03909116815260200161014a565b34801561027757600080fd5b5061013e6102863660046119c3565b6000918252602082815260408084206001600160a01b0393909316845291905290205460ff1690565b3480156102bb57600080fd5b50610183600081565b3480156102d057600080fd5b5061013e6102df36600461185a565b6106c0565b6102f76102f236600461185a565b6107bf565b60405161014a9190611d77565b34801561031057600080fd5b506101b161031f366004611819565b610d12565b34801561033057600080fd5b50600154610253906001600160a01b031681565b34801561035057600080fd5b506101837f9f2df0fed2c77648de5860a4cc508cd0818c85b8b8a1ab4ceeef8d981c8956a681565b34801561038457600080fd5b506101b16103933660046119c3565b610dc5565b3480156103a457600080fd5b506101837fb19546dff01e856fb3f010c267a7b1c60363cf8a4664e21cc89c26224620214e81565b60006001600160e01b03198216637965db0b60e01b14806103fd57506301ffc9a760e01b6001600160e01b03198316145b92915050565b60008281526020819052604090206001015461041e81610dea565b6104288383610df7565b505050565b7fb19546dff01e856fb3f010c267a7b1c60363cf8a4664e21cc89c26224620214e61045781610dea565b600280547fffffffffffffffffffffffff0000000000000000000000000000000000000000166001600160a01b0384169081179091556040519081527fabafa9c1e6fed9b333f964bb84ed729c36b3152a843ae96a671ebc95742de6e69060200160405180910390a15050565b6001600160a01b03811633146105475760405162461bcd60e51b815260206004820152602f60248201527f416363657373436f6e74726f6c3a2063616e206f6e6c792072656e6f756e636560448201527f20726f6c657320666f722073656c66000000000000000000000000000000000060648201526084015b60405180910390fd5b6105518282610e95565b5050565b7fb19546dff01e856fb3f010c267a7b1c60363cf8a4664e21cc89c26224620214e61057f81610dea565b6040516323b872dd60e01b81523060048201526001600160a01b038581166024830152604482018490528416906323b872dd90606401600060405180830381600087803b1580156105cf57600080fd5b505af11580156105e3573d6000803e3d6000fd5b5050505050505050565b7fb19546dff01e856fb3f010c267a7b1c60363cf8a4664e21cc89c26224620214e61061781610dea565b6000826001600160a01b03168460405160006040518083038185875af1925050503d8060008114610664576040519150601f19603f3d011682016040523d82523d6000602084013e610669565b606091505b50509050806106ba5760405162461bcd60e51b815260206004820152600f60248201527f7769746864726177206661696c65640000000000000000000000000000000000604482015260640161053e565b50505050565b60008060006106d18b8b8989610f14565b91509150600033838b8b858a306040516020016106f49796959493929190611bc9565b6040516020818303038152906040528051906020012090506000610765826040517f19457468657265756d205369676e6564204d6573736167653a0a3332000000006020820152603c8101829052600090605c01604051602081830303815290604052805190602001209050919050565b905060006107738288611229565b6001600160a01b031660009081527f0781d7cac9c378efa22a7481e4d4d29704a680ddf504b3bc50b517700ee11e6c602052604090205460ff169e9d5050505050505050505050505050565b6060878681146108115760405162461bcd60e51b815260206004820152601e60248201527f4d616368696e6553686f703a3a6d697373206d61746368207072696365730000604482015260640161053e565b428410156108615760405162461bcd60e51b815260206004820152601e60248201527f4d616368696e6553686f703a3a7369676e617475726520657870697265640000604482015260640161053e565b6003836040516108719190611c73565b9081526040519081900360200190205460ff16156108dd5760405162461bcd60e51b8152602060048201526024808201527f4d616368696e6553686f703a3a7369676e617475726520686173206265656e206044820152631d5cd95960e21b606482015260840161053e565b60016003846040516108ef9190611c73565b908152604051908190036020019020805491151560ff1990921691909117905561091f8a8a8a8a8a8a8a8a6106c0565b61096b5760405162461bcd60e51b815260206004820152601c60248201527f4d616368696e6553686f703a3a77726f6e67207369676e617475726500000000604482015260640161053e565b6000805b828110156109bd5789898281811061099757634e487b7160e01b600052603260045260246000fd5b90506020020135826109a99190611efd565b9150806109b581611f77565b91505061096f565b506002546040516323b872dd60e01b8152336004820152306024820152604481018390526000916001600160a01b0316906323b872dd90606401602060405180830381600087803b158015610a1157600080fd5b505af1158015610a25573d6000803e3d6000fd5b505050506040513d601f19601f82011682018060405250810190610a49919061198b565b905080610a985760405162461bcd60e51b815260206004820152601560248201527f63616e6e6f74207472616e736665722045524332300000000000000000000000604482015260640161053e565b8267ffffffffffffffff811115610abf57634e487b7160e01b600052604160045260246000fd5b604051908082528060200260200182016040528015610ae8578160200160208202803683370190505b50935060005b83811015610cbd576001546000906001600160a01b031663fdcfbdf38f8f85818110610b2a57634e487b7160e01b600052603260045260246000fd5b9050602002810190610b3c9190611ee8565b8e8e86818110610b5c57634e487b7160e01b600052603260045260246000fd5b90506020020135858c610b6f9190611efd565b8e8e88818110610b8f57634e487b7160e01b600052603260045260246000fd5b9050602002810190610ba19190611ea3565b6040518663ffffffff1660e01b8152600401610bc1959493929190611e65565b602060405180830381600087803b158015610bdb57600080fd5b505af1158015610bef573d6000803e3d6000fd5b505050506040513d601f19601f82011682018060405250810190610c139190611a34565b6001546040516323b872dd60e01b8152306004820152336024820152604481018390529192506001600160a01b0316906323b872dd90606401600060405180830381600087803b158015610c6657600080fd5b505af1158015610c7a573d6000803e3d6000fd5b5050505080868381518110610c9f57634e487b7160e01b600052603260045260246000fd5b60209081029190910101525080610cb581611f77565b915050610aee565b507f302c90c623546aff6ce70ccb0dffc200485a1d97d3580a84840175012b7fcad184338e8e8e8e8c8c604051610cfb989796959493929190611d8a565b60405180910390a150505098975050505050505050565b7fb19546dff01e856fb3f010c267a7b1c60363cf8a4664e21cc89c26224620214e610d3c81610dea565b60405163a9059cbb60e01b81526001600160a01b0383811660048301526024820185905285169063a9059cbb90604401602060405180830381600087803b158015610d8657600080fd5b505af1158015610d9a573d6000803e3d6000fd5b505050506040513d601f19601f82011682018060405250810190610dbe919061198b565b5050505050565b600082815260208190526040902060010154610de081610dea565b6104288383610e95565b610df4813361124d565b50565b6000828152602081815260408083206001600160a01b038516845290915290205460ff16610551576000828152602081815260408083206001600160a01b03851684529091529020805460ff19166001179055610e513390565b6001600160a01b0316816001600160a01b0316837f2f8788117e7eff1d82e926ec794901d17c78024a50270940304540a733656f0d60405160405180910390a45050565b6000828152602081815260408083206001600160a01b038516845290915290205460ff1615610551576000828152602081815260408083206001600160a01b0385168085529252808320805460ff1916905551339285917ff6391f5c32d9c69d2a47ea670b442974b53935d1edc7fd64eb21e047a839171b9190a45050565b60008084838114610f675760405162461bcd60e51b815260206004820152600f60248201527f6d697373206d6174636820736967730000000000000000000000000000000000604482015260640161053e565b60008167ffffffffffffffff811115610f9057634e487b7160e01b600052604160045260246000fd5b604051908082528060200260200182016040528015610fb9578160200160208202803683370190505b50905060008267ffffffffffffffff811115610fe557634e487b7160e01b600052604160045260246000fd5b60405190808252806020026020018201604052801561100e578160200160208202803683370190505b50905060005b838110156111c95789898281811061103c57634e487b7160e01b600052603260045260246000fd5b905060200281019061104e9190611ee8565b6110589080611ea3565b8b8b8481811061107857634e487b7160e01b600052603260045260246000fd5b905060200281019061108a9190611ee8565b61109b906040810190602001611a4c565b8c8c858181106110bb57634e487b7160e01b600052603260045260246000fd5b90506020028101906110cd9190611ee8565b6110de906060810190604001611a1a565b6040516020016110f19493929190611c8f565b6040516020818303038152906040528051906020012083828151811061112757634e487b7160e01b600052603260045260246000fd5b60200260200101818152505087878281811061115357634e487b7160e01b600052603260045260246000fd5b90506020028101906111659190611ea3565b604051602001611176929190611c63565b604051602081830303815290604052805190602001208282815181106111ac57634e487b7160e01b600052603260045260246000fd5b6020908102919091010152806111c181611f77565b915050611014565b50816040516020016111db9190611c2d565b604051602081830303815290604052805190602001209450806040516020016112049190611c2d565b6040516020818303038152906040528051906020012093505050505b94509492505050565b600080600061123885856112c0565b9150915061124581611306565b509392505050565b6000828152602081815260408083206001600160a01b038516845290915290205460ff166105515761127e8161148c565b61128983602061149e565b60405160200161129a929190611cf6565b60408051601f198184030181529082905262461bcd60e51b825261053e91600401611e52565b6000808251604114156112f75760208301516040840151606085015160001a6112eb87828585611694565b945094505050506112ff565b506000905060025b9250929050565b600081600481111561132857634e487b7160e01b600052602160045260246000fd5b14156113315750565b600181600481111561135357634e487b7160e01b600052602160045260246000fd5b14156113a15760405162461bcd60e51b815260206004820152601860248201527f45434453413a20696e76616c6964207369676e61747572650000000000000000604482015260640161053e565b60028160048111156113c357634e487b7160e01b600052602160045260246000fd5b14156114115760405162461bcd60e51b815260206004820152601f60248201527f45434453413a20696e76616c6964207369676e6174757265206c656e67746800604482015260640161053e565b600381600481111561143357634e487b7160e01b600052602160045260246000fd5b1415610df45760405162461bcd60e51b815260206004820152602260248201527f45434453413a20696e76616c6964207369676e6174757265202773272076616c604482015261756560f01b606482015260840161053e565b60606103fd6001600160a01b03831660145b606060006114ad836002611f15565b6114b8906002611efd565b67ffffffffffffffff8111156114de57634e487b7160e01b600052604160045260246000fd5b6040519080825280601f01601f191660200182016040528015611508576020820181803683370190505b509050600360fc1b8160008151811061153157634e487b7160e01b600052603260045260246000fd5b60200101906001600160f81b031916908160001a905350600f60fb1b8160018151811061156e57634e487b7160e01b600052603260045260246000fd5b60200101906001600160f81b031916908160001a9053506000611592846002611f15565b61159d906001611efd565b90505b600181111561163e577f303132333435363738396162636465660000000000000000000000000000000085600f16601081106115ec57634e487b7160e01b600052603260045260246000fd5b1a60f81b82828151811061161057634e487b7160e01b600052603260045260246000fd5b60200101906001600160f81b031916908160001a90535060049490941c9361163781611f60565b90506115a0565b50831561168d5760405162461bcd60e51b815260206004820181905260248201527f537472696e67733a20686578206c656e67746820696e73756666696369656e74604482015260640161053e565b9392505050565b6000807f7fffffffffffffffffffffffffffffff5d576e7357a4501ddfe92f46681b20a08311156116cb5750600090506003611220565b6040805160008082526020820180845289905260ff881692820192909252606081018690526080810185905260019060a0016020604051602081039080840390855afa15801561171f573d6000803e3d6000fd5b5050604051601f1901519150506001600160a01b03811661174857600060019250925050611220565b9660009650945050505050565b60008083601f840112611766578081fd5b50813567ffffffffffffffff81111561177d578182fd5b6020830191508360208260051b85010111156112ff57600080fd5b8035600481106117a757600080fd5b919050565b803560ff811681146117a757600080fd5b6000602082840312156117ce578081fd5b813561168d81611fbe565b6000806000606084860312156117ed578182fd5b83356117f881611fbe565b9250602084013561180881611fbe565b929592945050506040919091013590565b60008060006060848603121561182d578283fd5b833561183881611fbe565b925060208401359150604084013561184f81611fbe565b809150509250925092565b60008060008060008060008060a0898b031215611875578384fd5b883567ffffffffffffffff8082111561188c578586fd5b6118988c838d01611755565b909a50985060208b01359150808211156118b0578586fd5b6118bc8c838d01611755565b909850965060408b01359150808211156118d4578586fd5b6118e08c838d01611755565b909650945060608b0135935060808b01359150808211156118ff578283fd5b818b0191508b601f830112611912578283fd5b81358181111561192457611924611fa8565b604051601f8201601f19908116603f0116810190838211818310171561194c5761194c611fa8565b816040528281528e6020848701011115611964578586fd5b82602086016020830137856020848301015280955050505050509295985092959890939650565b60006020828403121561199c578081fd5b8151801515811461168d578182fd5b6000602082840312156119bc578081fd5b5035919050565b600080604083850312156119d5578182fd5b8235915060208301356119e781611fbe565b809150509250929050565b600060208284031215611a03578081fd5b81356001600160e01b03198116811461168d578182fd5b600060208284031215611a2b578081fd5b61168d82611798565b600060208284031215611a45578081fd5b5051919050565b600060208284031215611a5d578081fd5b61168d826117ac565b81835260006001600160fb1b03831115611a7e578081fd5b8260051b80836020870137939093016020019283525090919050565b6000815180845260208085019450808401835b83811015611ac957815187529582019590820190600101611aad565b509495945050505050565b81835281816020850137506000828201602090810191909152601f909101601f19169091010190565b60008151808452611b15816020860160208601611f34565b601f01601f19169290920160200192915050565b60008135601e19833603018112611b3e578182fd5b8201803567ffffffffffffffff811115611b56578283fd5b803603841315611b64578283fd5b60608552611b79606086018260208501611ad4565b91505060ff611b8a602085016117ac565b166020850152611b9c60408401611798565b60048110611bb857634e487b7160e01b83526021600452602483fd5b806040860152508091505092915050565b60006bffffffffffffffffffffffff19808a60601b1683528860148401526001600160fb1b03871115611bfa578182fd5b8660051b80896034860137909201603481019590955250605484019290925260601b166074820152608801949350505050565b815160009082906020808601845b83811015611c5757815185529382019390820190600101611c3b565b50929695505050505050565b8183823760009101908152919050565b60008251611c85818460208701611f34565b9190910192915050565b8385823760f883901b7fff000000000000000000000000000000000000000000000000000000000000001681850190815260009060048410611cdf57634e487b7160e01b82526021600452602482fd5b60f89390931b600184015250506002019392505050565b7f416363657373436f6e74726f6c3a206163636f756e7420000000000000000000815260008351611d2e816017850160208801611f34565b7f206973206d697373696e6720726f6c65200000000000000000000000000000006017918401918201528351611d6b816028840160208801611f34565b01602801949350505050565b60208152600061168d6020830184611a9a565b60c081526000611d9d60c083018b611a9a565b6001600160a01b038a16602084015282810360408401528088825260208201905060208960051b8301018a845b8b811015611e1257848303601f190184528135368e9003605e19018112611def578687fd5b611dfb848f8301611b29565b602095860195909450929092019150600101611dca565b50508481036060860152611e2781898b611a66565b9250505084608084015282810360a0840152611e438185611afd565b9b9a5050505050505050505050565b60208152600061168d6020830184611afd565b608081526000611e786080830188611b29565b8660208401528560408401528281036060840152611e97818587611ad4565b98975050505050505050565b6000808335601e19843603018112611eb9578283fd5b83018035915067ffffffffffffffff821115611ed3578283fd5b6020019150368190038213156112ff57600080fd5b60008235605e19833603018112611c85578182fd5b60008219821115611f1057611f10611f92565b500190565b6000816000190483118215151615611f2f57611f2f611f92565b500290565b60005b83811015611f4f578181015183820152602001611f37565b838111156106ba5750506000910152565b600081611f6f57611f6f611f92565b506000190190565b6000600019821415611f8b57611f8b611f92565b5060010190565b634e487b7160e01b600052601160045260246000fd5b634e487b7160e01b600052604160045260246000fd5b6001600160a01b0381168114610df457600080fdfea164736f6c6343000804000ab19546dff01e856fb3f010c267a7b1c60363cf8a4664e21cc89c26224620214e",
  "linkReferences": {},
  "deployedLinkReferences": {}
}