{
  "_format": "hh-sol-artifact-1",
  "contractName": "GMNMachine",
  "sourceName": "contracts/GMNMachine.sol",
  "abi": [
    {
      "inputs": [],
      "stateMutability": "nonpayable",
      "type": "constructor"
    },
    {
      "anonymous": false,
      "inputs": [
        {
          "indexed": true,
          "internalType": "address",
          "name": "owner",
          "type": "address"
        },
        {
          "indexed": true,
          "internalType": "address",
          "name": "approved",
          "type": "address"
        },
        {
          "indexed": true,
          "internalType": "uint256",
          "name": "tokenId",
          "type": "uint256"
        }
      ],
      "name": "Approval",
      "type": "event"
    },
    {
      "anonymous": false,
      "inputs": [
        {
          "indexed": true,
          "internalType": "address",
          "name": "owner",
          "type": "address"
        },
        {
          "indexed": true,
          "internalType": "address",
          "name": "operator",
          "type": "address"
        },
        {
          "indexed": false,
          "internalType": "bool",
          "name": "approved",
          "type": "bool"
        }
      ],
      "name": "ApprovalForAll",
      "type": "event"
    },
    {
      "anonymous": false,
      "inputs": [
        {
          "indexed": false,
          "internalType": "uint256",
          "name": "tokenId",
          "type": "uint256"
        },
        {
          "indexed": false,
          "internalType": "string",
          "name": "name",
          "type": "string"
        }
      ],
      "name": "ChangeName",
      "type": "event"
    },
    {
      "anonymous": false,
      "inputs": [
        {
          "indexed": false,
          "internalType": "address",
          "name": "player",
          "type": "address"
        },
        {
          "indexed": false,
          "internalType": "uint256",
          "name": "tokenId",
          "type": "uint256"
        },
        {
          "components": [
            {
              "internalType": "string",
              "name": "name",
              "type": "string"
            },
            {
              "internalType": "uint8",
              "name": "kind",
              "type": "uint8"
            },
            {
              "internalType": "enum GMNMachine.Rarity",
              "name": "rarity",
              "type": "uint8"
            }
          ],
          "indexed": false,
          "internalType": "struct GMNMachine.MachineInfo",
          "name": "info",
          "type": "tuple"
        }
      ],
      "name": "Minted",
      "type": "event"
    },
    {
      "anonymous": false,
      "inputs": [
        {
          "indexed": true,
          "internalType": "bytes32",
          "name": "role",
          "type": "bytes32"
        },
        {
          "indexed": true,
          "internalType": "bytes32",
          "name": "previousAdminRole",
          "type": "bytes32"
        },
        {
          "indexed": true,
          "internalType": "bytes32",
          "name": "newAdminRole",
          "type": "bytes32"
        }
      ],
      "name": "RoleAdminChanged",
      "type": "event"
    },
    {
      "anonymous": false,
      "inputs": [
        {
          "indexed": true,
          "internalType": "bytes32",
          "name": "role",
          "type": "bytes32"
        },
        {
          "indexed": true,
          "internalType": "address",
          "name": "account",
          "type": "address"
        },
        {
          "indexed": true,
          "internalType": "address",
          "name": "sender",
          "type": "address"
        }
      ],
      "name": "RoleGranted",
      "type": "event"
    },
    {
      "anonymous": false,
      "inputs": [
        {
          "indexed": true,
          "internalType": "bytes32",
          "name": "role",
          "type": "bytes32"
        },
        {
          "indexed": true,
          "internalType": "address",
          "name": "account",
          "type": "address"
        },
        {
          "indexed": true,
          "internalType": "address",
          "name": "sender",
          "type": "address"
        }
      ],
      "name": "RoleRevoked",
      "type": "event"
    },
    {
      "anonymous": false,
      "inputs": [
        {
          "indexed": false,
          "internalType": "string",
          "name": "baseUri",
          "type": "string"
        }
      ],
      "name": "SetBaseUri",
      "type": "event"
    },
    {
      "anonymous": false,
      "inputs": [
        {
          "indexed": false,
          "internalType": "address",
          "name": "currency",
          "type": "address"
        }
      ],
      "name": "SetCurrency",
      "type": "event"
    },
    {
      "anonymous": false,
      "inputs": [
        {
          "indexed": false,
          "internalType": "address",
          "name": "revenueAddress",
          "type": "address"
        }
      ],
      "name": "SetRevenueAddress",
      "type": "event"
    },
    {
      "anonymous": false,
      "inputs": [
        {
          "indexed": false,
          "internalType": "uint256",
          "name": "newTokenId",
          "type": "uint256"
        },
        {
          "indexed": false,
          "internalType": "address",
          "name": "player",
          "type": "address"
        },
        {
          "components": [
            {
              "internalType": "string",
              "name": "name",
              "type": "string"
            },
            {
              "internalType": "uint8",
              "name": "kind",
              "type": "uint8"
            },
            {
              "internalType": "enum GMNMachine.Rarity",
              "name": "rarity",
              "type": "uint8"
            }
          ],
          "indexed": false,
          "internalType": "struct GMNMachine.MachineInfo",
          "name": "characterInfo",
          "type": "tuple"
        },
        {
          "indexed": false,
          "internalType": "uint256",
          "name": "price",
          "type": "uint256"
        }
      ],
      "name": "Sold",
      "type": "event"
    },
    {
      "anonymous": false,
      "inputs": [
        {
          "indexed": true,
          "internalType": "address",
          "name": "from",
          "type": "address"
        },
        {
          "indexed": true,
          "internalType": "address",
          "name": "to",
          "type": "address"
        },
        {
          "indexed": true,
          "internalType": "uint256",
          "name": "tokenId",
          "type": "uint256"
        }
      ],
      "name": "Transfer",
      "type": "event"
    },
    {
      "anonymous": false,
      "inputs": [
        {
          "indexed": false,
          "internalType": "bytes",
          "name": "signature",
          "type": "bytes"
        }
      ],
      "name": "UsedSignature",
      "type": "event"
    },
    {
      "anonymous": false,
      "inputs": [
        {
          "indexed": false,
          "internalType": "address",
          "name": "revenueAddress",
          "type": "address"
        },
        {
          "indexed": false,
          "internalType": "uint256",
          "name": "amount",
          "type": "uint256"
        }
      ],
      "name": "WithdrawRevenue",
      "type": "event"
    },
    {
      "inputs": [],
      "name": "DEFAULT_ADMIN_ROLE",
      "outputs": [
        {
          "internalType": "bytes32",
          "name": "",
          "type": "bytes32"
        }
      ],
      "stateMutability": "view",
      "type": "function"
    },
    {
      "inputs": [],
      "name": "MINTER_ROLE",
      "outputs": [
        {
          "internalType": "bytes32",
          "name": "",
          "type": "bytes32"
        }
      ],
      "stateMutability": "view",
      "type": "function"
    },
    {
      "inputs": [],
      "name": "OPERATION_ROLE",
      "outputs": [
        {
          "internalType": "bytes32",
          "name": "",
          "type": "bytes32"
        }
      ],
      "stateMutability": "view",
      "type": "function"
    },
    {
      "inputs": [],
      "name": "OWNER_ROLE",
      "outputs": [
        {
          "internalType": "bytes32",
          "name": "",
          "type": "bytes32"
        }
      ],
      "stateMutability": "view",
      "type": "function"
    },
    {
      "inputs": [
        {
          "internalType": "address",
          "name": "to",
          "type": "address"
        },
        {
          "internalType": "uint256",
          "name": "tokenId",
          "type": "uint256"
        }
      ],
      "name": "approve",
      "outputs": [],
      "stateMutability": "nonpayable",
      "type": "function"
    },
    {
      "inputs": [
        {
          "internalType": "address",
          "name": "owner",
          "type": "address"
        }
      ],
      "name": "balanceOf",
      "outputs": [
        {
          "internalType": "uint256",
          "name": "",
          "type": "uint256"
        }
      ],
      "stateMutability": "view",
      "type": "function"
    },
    {
      "inputs": [
        {
          "components": [
            {
              "internalType": "string",
              "name": "name",
              "type": "string"
            },
            {
              "internalType": "uint8",
              "name": "kind",
              "type": "uint8"
            },
            {
              "internalType": "enum GMNMachine.Rarity",
              "name": "rarity",
              "type": "uint8"
            }
          ],
          "internalType": "struct GMNMachine.MachineInfo",
          "name": "machine",
          "type": "tuple"
        },
        {
          "internalType": "uint256",
          "name": "price",
          "type": "uint256"
        },
        {
          "internalType": "uint256",
          "name": "expire",
          "type": "uint256"
        },
        {
          "internalType": "bytes",
          "name": "signature",
          "type": "bytes"
        }
      ],
      "name": "buy",
      "outputs": [
        {
          "internalType": "uint256",
          "name": "",
          "type": "uint256"
        }
      ],
      "stateMutability": "payable",
      "type": "function"
    },
    {
      "inputs": [
        {
          "internalType": "uint256",
          "name": "tokenId",
          "type": "uint256"
        },
        {
          "internalType": "string",
          "name": "name",
          "type": "string"
        }
      ],
      "name": "changeName",
      "outputs": [],
      "stateMutability": "nonpayable",
      "type": "function"
    },
    {
      "inputs": [
        {
          "internalType": "address",
          "name": "token",
          "type": "address"
        },
        {
          "internalType": "uint256",
          "name": "amount",
          "type": "uint256"
        },
        {
          "internalType": "address",
          "name": "sendTo",
          "type": "address"
        }
      ],
      "name": "forceReturnERC20",
      "outputs": [],
      "stateMutability": "nonpayable",
      "type": "function"
    },
    {
      "inputs": [
        {
          "internalType": "address",
          "name": "sendTo",
          "type": "address"
        },
        {
          "internalType": "address",
          "name": "token",
          "type": "address"
        },
        {
          "internalType": "uint256",
          "name": "tokenId",
          "type": "uint256"
        }
      ],
      "name": "forceReturnERC721",
      "outputs": [],
      "stateMutability": "nonpayable",
      "type": "function"
    },
    {
      "inputs": [
        {
          "internalType": "uint256",
          "name": "amount",
          "type": "uint256"
        },
        {
          "internalType": "address payable",
          "name": "sendTo",
          "type": "address"
        }
      ],
      "name": "forceReturnNative",
      "outputs": [],
      "stateMutability": "nonpayable",
      "type": "function"
    },
    {
      "inputs": [
        {
          "internalType": "uint256",
          "name": "tokenId",
          "type": "uint256"
        }
      ],
      "name": "getApproved",
      "outputs": [
        {
          "internalType": "address",
          "name": "",
          "type": "address"
        }
      ],
      "stateMutability": "view",
      "type": "function"
    },
    {
      "inputs": [
        {
          "internalType": "uint256",
          "name": "tokenId",
          "type": "uint256"
        }
      ],
      "name": "getMachine",
      "outputs": [
        {
          "components": [
            {
              "internalType": "string",
              "name": "name",
              "type": "string"
            },
            {
              "internalType": "uint8",
              "name": "kind",
              "type": "uint8"
            },
            {
              "internalType": "enum GMNMachine.Rarity",
              "name": "rarity",
              "type": "uint8"
            }
          ],
          "internalType": "struct GMNMachine.MachineInfo",
          "name": "",
          "type": "tuple"
        }
      ],
      "stateMutability": "view",
      "type": "function"
    },
    {
      "inputs": [
        {
          "internalType": "bytes32",
          "name": "role",
          "type": "bytes32"
        }
      ],
      "name": "getRoleAdmin",
      "outputs": [
        {
          "internalType": "bytes32",
          "name": "",
          "type": "bytes32"
        }
      ],
      "stateMutability": "view",
      "type": "function"
    },
    {
      "inputs": [
        {
          "internalType": "bytes32",
          "name": "role",
          "type": "bytes32"
        },
        {
          "internalType": "address",
          "name": "account",
          "type": "address"
        }
      ],
      "name": "grantRole",
      "outputs": [],
      "stateMutability": "nonpayable",
      "type": "function"
    },
    {
      "inputs": [
        {
          "internalType": "bytes32",
          "name": "role",
          "type": "bytes32"
        },
        {
          "internalType": "address",
          "name": "account",
          "type": "address"
        }
      ],
      "name": "hasRole",
      "outputs": [
        {
          "internalType": "bool",
          "name": "",
          "type": "bool"
        }
      ],
      "stateMutability": "view",
      "type": "function"
    },
    {
      "inputs": [
        {
          "internalType": "address",
          "name": "owner",
          "type": "address"
        },
        {
          "internalType": "address",
          "name": "operator",
          "type": "address"
        }
      ],
      "name": "isApprovedForAll",
      "outputs": [
        {
          "internalType": "bool",
          "name": "",
          "type": "bool"
        }
      ],
      "stateMutability": "view",
      "type": "function"
    },
    {
      "inputs": [],
      "name": "name",
      "outputs": [
        {
          "internalType": "string",
          "name": "",
          "type": "string"
        }
      ],
      "stateMutability": "view",
      "type": "function"
    },
    {
      "inputs": [
        {
          "internalType": "uint256",
          "name": "tokenId",
          "type": "uint256"
        }
      ],
      "name": "ownerOf",
      "outputs": [
        {
          "internalType": "address",
          "name": "",
          "type": "address"
        }
      ],
      "stateMutability": "view",
      "type": "function"
    },
    {
      "inputs": [
        {
          "internalType": "bytes32",
          "name": "role",
          "type": "bytes32"
        },
        {
          "internalType": "address",
          "name": "account",
          "type": "address"
        }
      ],
      "name": "renounceRole",
      "outputs": [],
      "stateMutability": "nonpayable",
      "type": "function"
    },
    {
      "inputs": [],
      "name": "revenueAddress",
      "outputs": [
        {
          "internalType": "address",
          "name": "",
          "type": "address"
        }
      ],
      "stateMutability": "view",
      "type": "function"
    },
    {
      "inputs": [
        {
          "internalType": "bytes32",
          "name": "role",
          "type": "bytes32"
        },
        {
          "internalType": "address",
          "name": "account",
          "type": "address"
        }
      ],
      "name": "revokeRole",
      "outputs": [],
      "stateMutability": "nonpayable",
      "type": "function"
    },
    {
      "inputs": [
        {
          "internalType": "address",
          "name": "from",
          "type": "address"
        },
        {
          "internalType": "address",
          "name": "to",
          "type": "address"
        },
        {
          "internalType": "uint256",
          "name": "tokenId",
          "type": "uint256"
        }
      ],
      "name": "safeTransferFrom",
      "outputs": [],
      "stateMutability": "nonpayable",
      "type": "function"
    },
    {
      "inputs": [
        {
          "internalType": "address",
          "name": "from",
          "type": "address"
        },
        {
          "internalType": "address",
          "name": "to",
          "type": "address"
        },
        {
          "internalType": "uint256",
          "name": "tokenId",
          "type": "uint256"
        },
        {
          "internalType": "bytes",
          "name": "data",
          "type": "bytes"
        }
      ],
      "name": "safeTransferFrom",
      "outputs": [],
      "stateMutability": "nonpayable",
      "type": "function"
    },
    {
      "inputs": [
        {
          "internalType": "address",
          "name": "operator",
          "type": "address"
        },
        {
          "internalType": "bool",
          "name": "approved",
          "type": "bool"
        }
      ],
      "name": "setApprovalForAll",
      "outputs": [],
      "stateMutability": "nonpayable",
      "type": "function"
    },
    {
      "inputs": [
        {
          "internalType": "string",
          "name": "_baseUri",
          "type": "string"
        }
      ],
      "name": "setBaseUri",
      "outputs": [],
      "stateMutability": "nonpayable",
      "type": "function"
    },
    {
      "inputs": [
        {
          "internalType": "address",
          "name": "_currency",
          "type": "address"
        }
      ],
      "name": "setCurrency",
      "outputs": [],
      "stateMutability": "nonpayable",
      "type": "function"
    },
    {
      "inputs": [
        {
          "internalType": "address",
          "name": "_revenue",
          "type": "address"
        }
      ],
      "name": "setRevenueAddress",
      "outputs": [],
      "stateMutability": "nonpayable",
      "type": "function"
    },
    {
      "inputs": [
        {
          "internalType": "bytes4",
          "name": "interfaceId",
          "type": "bytes4"
        }
      ],
      "name": "supportsInterface",
      "outputs": [
        {
          "internalType": "bool",
          "name": "",
          "type": "bool"
        }
      ],
      "stateMutability": "view",
      "type": "function"
    },
    {
      "inputs": [],
      "name": "symbol",
      "outputs": [
        {
          "internalType": "string",
          "name": "",
          "type": "string"
        }
      ],
      "stateMutability": "view",
      "type": "function"
    },
    {
      "inputs": [
        {
          "internalType": "uint256",
          "name": "index",
          "type": "uint256"
        }
      ],
      "name": "tokenByIndex",
      "outputs": [
        {
          "internalType": "uint256",
          "name": "",
          "type": "uint256"
        }
      ],
      "stateMutability": "view",
      "type": "function"
    },
    {
      "inputs": [
        {
          "internalType": "address",
          "name": "user",
          "type": "address"
        }
      ],
      "name": "tokenIds",
      "outputs": [
        {
          "internalType": "uint256[]",
          "name": "ids",
          "type": "uint256[]"
        }
      ],
      "stateMutability": "view",
      "type": "function"
    },
    {
      "inputs": [
        {
          "internalType": "address",
          "name": "owner",
          "type": "address"
        },
        {
          "internalType": "uint256",
          "name": "index",
          "type": "uint256"
        }
      ],
      "name": "tokenOfOwnerByIndex",
      "outputs": [
        {
          "internalType": "uint256",
          "name": "",
          "type": "uint256"
        }
      ],
      "stateMutability": "view",
      "type": "function"
    },
    {
      "inputs": [
        {
          "internalType": "uint256",
          "name": "tokenId",
          "type": "uint256"
        }
      ],
      "name": "tokenURI",
      "outputs": [
        {
          "internalType": "string",
          "name": "",
          "type": "string"
        }
      ],
      "stateMutability": "view",
      "type": "function"
    },
    {
      "inputs": [],
      "name": "totalSupply",
      "outputs": [
        {
          "internalType": "uint256",
          "name": "",
          "type": "uint256"
        }
      ],
      "stateMutability": "view",
      "type": "function"
    },
    {
      "inputs": [
        {
          "internalType": "address",
          "name": "from",
          "type": "address"
        },
        {
          "internalType": "address",
          "name": "to",
          "type": "address"
        },
        {
          "internalType": "uint256",
          "name": "tokenId",
          "type": "uint256"
        }
      ],
      "name": "transferFrom",
      "outputs": [],
      "stateMutability": "nonpayable",
      "type": "function"
    },
    {
      "inputs": [],
      "name": "withdrawRevenue",
      "outputs": [],
      "stateMutability": "nonpayable",
      "type": "function"
    },
    {
      "stateMutability": "payable",
      "type": "receive"
    }
  ],
  "bytecode": "0x60806040523480156200001157600080fd5b50604080518082018252601481527f476f6c644d696e65724e4654204d616368696e65000000000000000000000000602080830191825283518085019094526004845263474d4e4d60e01b90840152815191929162000073916001916200026a565b508051620000899060029060208401906200026a565b50505060405180606001604052806033815260200162003f8b603391398051620000bc91600c916020909101906200026a565b50620000d860008051602062003f6b833981519152806200016f565b620001137f9f2df0fed2c77648de5860a4cc508cd0818c85b8b8a1ab4ceeef8d981c8956a660008051602062003f6b8339815191526200016f565b6200014e7f20296b01d0b6bd176f0c1e29644934c0047abf080dae43609a1bbc09e39bafdb60008051602062003f6b8339815191526200016f565b6200016960008051602062003f6b83398151915233620001ba565b6200034d565b600082815260208190526040808220600101805490849055905190918391839186917fbd79b86ffe0ab8e8776151514217cd7cacd52c909f66475c3af44e129f0b00ff9190a4505050565b620001c68282620001ca565b5050565b6000828152602081815260408083206001600160a01b038516845290915290205460ff16620001c6576000828152602081815260408083206001600160a01b03851684529091529020805460ff19166001179055620002263390565b6001600160a01b0316816001600160a01b0316837f2f8788117e7eff1d82e926ec794901d17c78024a50270940304540a733656f0d60405160405180910390a45050565b828054620002789062000310565b90600052602060002090601f0160209004810192826200029c5760008555620002e7565b82601f10620002b757805160ff1916838001178555620002e7565b82800160010185558215620002e7579182015b82811115620002e7578251825591602001919060010190620002ca565b50620002f5929150620002f9565b5090565b5b80821115620002f55760008155600101620002fa565b600181811c908216806200032557607f821691505b602082108114156200034757634e487b7160e01b600052602260045260246000fd5b50919050565b613c0e806200035d6000396000f3fe60806040526004361061026e5760003560e01c806370a0823111610153578063b410908d116100cb578063d547741f1161007f578063e985e9c511610064578063e985e9c514610746578063fc97a3031461078f578063fdcfbdf3146107bc57600080fd5b8063d547741f146106f2578063e58378bb1461071257600080fd5b8063c39cbef1116100b0578063c39cbef11461067e578063c87b56dd1461069e578063d5391393146106be57600080fd5b8063b410908d1461063e578063b88d4fde1461065e57600080fd5b806395d89b4111610122578063a217fddf11610107578063a217fddf146105e9578063a22cb465146105fe578063aab057171461061e57600080fd5b806395d89b41146105b4578063a0bcfc7f146105c957600080fd5b806370a08231146104fc57806374b226471461051c5780638545d8df1461053c57806391d148541461057057600080fd5b80632f84c391116101e65780634977182b116101b55780634f6ccce71161019a5780634f6ccce71461048f5780636352211e146104af5780636d3fac54146104cf57600080fd5b80634977182b1461045a5780634f573cb21461047a57600080fd5b80632f84c391146103da57806336568abe146103fa57806342842e0e1461041a57806345338d631461043a57600080fd5b806318160ddd1161023d578063248a9ca311610222578063248a9ca31461036a5780632f2ff15d1461039a5780632f745c59146103ba57600080fd5b806318160ddd1461032b57806323b872dd1461034a57600080fd5b806301ffc9a71461027a57806306fdde03146102af578063081812fc146102d1578063095ea7b31461030957600080fd5b3661027557005b600080fd5b34801561028657600080fd5b5061029a61029536600461340c565b6107cf565b60405190151581526020015b60405180910390f35b3480156102bb57600080fd5b506102c46107e0565b6040516102a691906138e0565b3480156102dd57600080fd5b506102f16102ec3660046133d0565b610872565b6040516001600160a01b0390911681526020016102a6565b34801561031557600080fd5b50610329610324366004613348565b610899565b005b34801561033757600080fd5b506009545b6040519081526020016102a6565b34801561035657600080fd5b50610329610365366004613271565b6109b4565b34801561037657600080fd5b5061033c6103853660046133d0565b60009081526020819052604090206001015490565b3480156103a657600080fd5b506103296103b53660046133e8565b610a2b565b3480156103c657600080fd5b5061033c6103d5366004613348565b610a50565b3480156103e657600080fd5b506103296103f536600461321d565b610af8565b34801561040657600080fd5b506103296104153660046133e8565b610b78565b34801561042657600080fd5b50610329610435366004613271565b610c04565b34801561044657600080fd5b5061032961045536600461321d565b610c1f565b34801561046657600080fd5b50610329610475366004613271565b610c97565b34801561048657600080fd5b50610329610d2f565b34801561049b57600080fd5b5061033c6104aa3660046133d0565b610f63565b3480156104bb57600080fd5b506102f16104ca3660046133d0565b611015565b3480156104db57600080fd5b506104ef6104ea3660046133d0565b61107a565b6040516102a69190613907565b34801561050857600080fd5b5061033c61051736600461321d565b611231565b34801561052857600080fd5b506103296105373660046133e8565b6112cb565b34801561054857600080fd5b5061033c7f20296b01d0b6bd176f0c1e29644934c0047abf080dae43609a1bbc09e39bafdb81565b34801561057c57600080fd5b5061029a61058b3660046133e8565b6000918252602082815260408084206001600160a01b0393909316845291905290205460ff1690565b3480156105c057600080fd5b506102c461139e565b3480156105d557600080fd5b506103296105e4366004613444565b6113ad565b3480156105f557600080fd5b5061033c600081565b34801561060a57600080fd5b5061032961061936600461331b565b611422565b34801561062a57600080fd5b50610329610639366004613373565b61142d565b34801561064a57600080fd5b50600e546102f1906001600160a01b031681565b34801561066a57600080fd5b506103296106793660046132b1565b6114e0565b34801561068a57600080fd5b5061032961069936600461350b565b611558565b3480156106aa57600080fd5b506102c46106b93660046133d0565b611633565b3480156106ca57600080fd5b5061033c7f9f2df0fed2c77648de5860a4cc508cd0818c85b8b8a1ab4ceeef8d981c8956a681565b3480156106fe57600080fd5b5061032961070d3660046133e8565b611744565b34801561071e57600080fd5b5061033c7fb19546dff01e856fb3f010c267a7b1c60363cf8a4664e21cc89c26224620214e81565b34801561075257600080fd5b5061029a610761366004613239565b6001600160a01b03918216600090815260066020908152604080832093909416825291909152205460ff1690565b34801561079b57600080fd5b506107af6107aa36600461321d565b611769565b6040516102a6919061389c565b61033c6107ca366004613484565b611824565b60006107da82611a50565b92915050565b6060600180546107ef90613b1c565b80601f016020809104026020016040519081016040528092919081815260200182805461081b90613b1c565b80156108685780601f1061083d57610100808354040283529160200191610868565b820191906000526020600020905b81548152906001019060200180831161084b57829003601f168201915b5050505050905090565b600061087d82611a75565b506000908152600560205260409020546001600160a01b031690565b60006108a482611015565b9050806001600160a01b0316836001600160a01b031614156109175760405162461bcd60e51b815260206004820152602160248201527f4552433732313a20617070726f76616c20746f2063757272656e74206f776e656044820152603960f91b60648201526084015b60405180910390fd5b336001600160a01b038216148061093357506109338133610761565b6109a55760405162461bcd60e51b815260206004820152603d60248201527f4552433732313a20617070726f76652063616c6c6572206973206e6f7420746f60448201527f6b656e206f776e6572206f7220617070726f76656420666f7220616c6c000000606482015260840161090e565b6109af8383611adc565b505050565b6109be3382611b4a565b610a205760405162461bcd60e51b815260206004820152602d60248201527f4552433732313a2063616c6c6572206973206e6f7420746f6b656e206f776e6560448201526c1c881bdc88185c1c1c9bdd9959609a1b606482015260840161090e565b6109af838383611bc8565b600082815260208190526040902060010154610a4681611db5565b6109af8383611dbf565b6000610a5b83611231565b8210610acf5760405162461bcd60e51b815260206004820152602b60248201527f455243373231456e756d657261626c653a206f776e657220696e646578206f7560448201527f74206f6620626f756e6473000000000000000000000000000000000000000000606482015260840161090e565b506001600160a01b03919091166000908152600760209081526040808320938352929052205490565b7fb19546dff01e856fb3f010c267a7b1c60363cf8a4664e21cc89c26224620214e610b2281611db5565b600d80546001600160a01b0319166001600160a01b0384169081179091556040519081527fabafa9c1e6fed9b333f964bb84ed729c36b3152a843ae96a671ebc95742de6e6906020015b60405180910390a15050565b6001600160a01b0381163314610bf65760405162461bcd60e51b815260206004820152602f60248201527f416363657373436f6e74726f6c3a2063616e206f6e6c792072656e6f756e636560448201527f20726f6c657320666f722073656c660000000000000000000000000000000000606482015260840161090e565b610c008282611e5d565b5050565b6109af838383604051806020016040528060008152506114e0565b7fb19546dff01e856fb3f010c267a7b1c60363cf8a4664e21cc89c26224620214e610c4981611db5565b600e80546001600160a01b0319166001600160a01b0384169081179091556040519081527f6262505032fadb740a3e85a77150827f4c68e089a646a1faa87781534bb8974f90602001610b6c565b7fb19546dff01e856fb3f010c267a7b1c60363cf8a4664e21cc89c26224620214e610cc181611db5565b6040516323b872dd60e01b81523060048201526001600160a01b038581166024830152604482018490528416906323b872dd90606401600060405180830381600087803b158015610d1157600080fd5b505af1158015610d25573d6000803e3d6000fd5b5050505050505050565b7f20296b01d0b6bd176f0c1e29644934c0047abf080dae43609a1bbc09e39bafdb610d5981611db5565b600e546001600160a01b0316610dbb5760405162461bcd60e51b815260206004820152602160248201527f4d7573742062652073657420726576656e7565206164647265737320666972736044820152601d60fa1b606482015260840161090e565b600d546040516370a0823160e01b81523060048201526001600160a01b039091169060009082906370a082319060240160206040518083038186803b158015610e0357600080fd5b505afa158015610e17573d6000803e3d6000fd5b505050506040513d601f19601f82011682018060405250810190610e3b91906134f3565b600e5460405163a9059cbb60e01b81526001600160a01b039182166004820152602481018390529192506000919084169063a9059cbb90604401602060405180830381600087803b158015610e8f57600080fd5b505af1158015610ea3573d6000803e3d6000fd5b505050506040513d601f19601f82011682018060405250810190610ec791906133b4565b905080610f165760405162461bcd60e51b815260206004820152601f60248201527f4572726f72207768656e207472616e7366657220455243323020746f6b656e00604482015260640161090e565b600e54604080516001600160a01b039092168252602082018490527f447d53be88e315476bdbe2e63cef309461f6305d09aada67641c29e6b897e30191015b60405180910390a150505050565b6000610f6e60095490565b8210610fe25760405162461bcd60e51b815260206004820152602c60248201527f455243373231456e756d657261626c653a20676c6f62616c20696e646578206f60448201527f7574206f6620626f756e64730000000000000000000000000000000000000000606482015260840161090e565b6009828154811061100357634e487b7160e01b600052603260045260246000fd5b90600052602060002001549050919050565b6000818152600360205260408120546001600160a01b0316806107da5760405162461bcd60e51b815260206004820152601860248201527f4552433732313a20696e76616c696420746f6b656e2049440000000000000000604482015260640161090e565b61109b60408051606080820183528152600060208201819052909182015290565b6000828152600360205260409020546001600160a01b03166111255760405162461bcd60e51b815260206004820152603160248201527f45524337323155524953746f726167653a2055524920717565727920666f722060448201527f6e6f6e6578697374656e7420746f6b656e000000000000000000000000000000606482015260840161090e565b6000828152600f60205260409081902081516060810190925280548290829061114d90613b1c565b80601f016020809104026020016040519081016040528092919081815260200182805461117990613b1c565b80156111c65780601f1061119b576101008083540402835291602001916111c6565b820191906000526020600020905b8154815290600101906020018083116111a957829003601f168201915b5050509183525050600182015460ff808216602084015260409092019161010090910416600381111561120957634e487b7160e01b600052602160045260246000fd5b600381111561122857634e487b7160e01b600052602160045260246000fd5b90525092915050565b60006001600160a01b0382166112af5760405162461bcd60e51b815260206004820152602960248201527f4552433732313a2061646472657373207a65726f206973206e6f74206120766160448201527f6c6964206f776e65720000000000000000000000000000000000000000000000606482015260840161090e565b506001600160a01b031660009081526004602052604090205490565b7fb19546dff01e856fb3f010c267a7b1c60363cf8a4664e21cc89c26224620214e6112f581611db5565b6000826001600160a01b03168460405160006040518083038185875af1925050503d8060008114611342576040519150601f19603f3d011682016040523d82523d6000602084013e611347565b606091505b50509050806113985760405162461bcd60e51b815260206004820152600f60248201527f7769746864726177206661696c65640000000000000000000000000000000000604482015260640161090e565b50505050565b6060600280546107ef90613b1c565b7fb19546dff01e856fb3f010c267a7b1c60363cf8a4664e21cc89c26224620214e6113d781611db5565b6113e3600c8484613016565b507fafa35f42f46f5052816d7c6a2e9406eca98294b20726677862d83b4a7418d8d583836040516114159291906138f3565b60405180910390a1505050565b610c00338383611edc565b7fb19546dff01e856fb3f010c267a7b1c60363cf8a4664e21cc89c26224620214e61145781611db5565b60405163a9059cbb60e01b81526001600160a01b0383811660048301526024820185905285169063a9059cbb90604401602060405180830381600087803b1580156114a157600080fd5b505af11580156114b5573d6000803e3d6000fd5b505050506040513d601f19601f820116820180604052508101906114d991906133b4565b5050505050565b6114ea3383611b4a565b61154c5760405162461bcd60e51b815260206004820152602d60248201527f4552433732313a2063616c6c6572206973206e6f7420746f6b656e206f776e6560448201526c1c881bdc88185c1c1c9bdd9959609a1b606482015260840161090e565b61139884848484611fab565b7f20296b01d0b6bd176f0c1e29644934c0047abf080dae43609a1bbc09e39bafdb61158281611db5565b6000848152600360205260409020546001600160a01b03166115e65760405162461bcd60e51b815260206004820152601b60248201527f517565727920666f72206e6f6e6578697374656e7420746f6b656e0000000000604482015260640161090e565b6000848152600f602052604090206115ff908484613016565b507f355e6037a3f9c646870e44d77364164d02ab85580efdbb66363b503c3a25f5af848484604051610f55939291906139c9565b6000818152600360205260409020546060906001600160a01b03166116a65760405162461bcd60e51b815260206004820152602360248201527f4552433732313a20717565727920666f72206e6f6e6578697374656e7420746f60448201526235b2b760e91b606482015260840161090e565b600082815260106020526040902080546116bf90613b1c565b80601f01602080910402602001604051908101604052809291908181526020018280546116eb90613b1c565b80156117385780601f1061170d57610100808354040283529160200191611738565b820191906000526020600020905b81548152906001019060200180831161171b57829003601f168201915b50505050509050919050565b60008281526020819052604090206001015461175f81611db5565b6109af8383611e5d565b6060600061177683611231565b90508067ffffffffffffffff81111561179f57634e487b7160e01b600052604160045260246000fd5b6040519080825280602002602001820160405280156117c8578160200160208202803683370190505b50915060005b8181101561181d576117e08482610a50565b83828151811061180057634e487b7160e01b600052603260045260246000fd5b60209081029190910101528061181581613b57565b9150506117ce565b5050919050565b600061183a61183286613a45565b858585612034565b6118865760405162461bcd60e51b815260206004820152601160248201527f496e76616c6964205369676e6174757265000000000000000000000000000000604482015260640161090e565b600d546001600160a01b03166118eb57833410156118e65760405162461bcd60e51b815260206004820181905260248201527f42616c616e6365206973206e6f7420656e6f75676820746f2070617920666565604482015260640161090e565b6119f2565b600d546040516323b872dd60e01b8152336004820152306024820152604481018690526001600160a01b039091169060009082906323b872dd90606401602060405180830381600087803b15801561194257600080fd5b505af1158015611956573d6000803e3d6000fd5b505050506040513d601f19601f8201168201806040525081019061197a91906133b4565b9050806119ef5760405162461bcd60e51b815260206004820152602660248201527f43616e6e6f74207472616e7366657220455243323020546f6b656e20746f207060448201527f6179206e66740000000000000000000000000000000000000000000000000000606482015260840161090e565b50505b6000611a0633611a0188613a45565b612250565b90507f333d347daf926c62fe4db937286de5f30c1ab4e88772ee81baffba266af2e34c81338888604051611a3d949392919061391a565b60405180910390a190505b949350505050565b60006001600160e01b0319821663780e9d6360e01b14806107da57506107da8261237c565b6000818152600360205260409020546001600160a01b0316611ad95760405162461bcd60e51b815260206004820152601860248201527f4552433732313a20696e76616c696420746f6b656e2049440000000000000000604482015260640161090e565b50565b600081815260056020526040902080546001600160a01b0319166001600160a01b0384169081179091558190611b1182611015565b6001600160a01b03167f8c5be1e5ebec7d5bd14f71427d1e84f3dd0314c0f7b2291e5b200ac8c7c3b92560405160405180910390a45050565b600080611b5683611015565b9050806001600160a01b0316846001600160a01b03161480611b9d57506001600160a01b0380821660009081526006602090815260408083209388168352929052205460ff165b80611a485750836001600160a01b0316611bb684610872565b6001600160a01b031614949350505050565b826001600160a01b0316611bdb82611015565b6001600160a01b031614611c3f5760405162461bcd60e51b815260206004820152602560248201527f4552433732313a207472616e736665722066726f6d20696e636f72726563742060448201526437bbb732b960d91b606482015260840161090e565b6001600160a01b038216611ca15760405162461bcd60e51b8152602060048201526024808201527f4552433732313a207472616e7366657220746f20746865207a65726f206164646044820152637265737360e01b606482015260840161090e565b611cae83838360016123bc565b826001600160a01b0316611cc182611015565b6001600160a01b031614611d255760405162461bcd60e51b815260206004820152602560248201527f4552433732313a207472616e736665722066726f6d20696e636f72726563742060448201526437bbb732b960d91b606482015260840161090e565b600081815260056020908152604080832080546001600160a01b03199081169091556001600160a01b0387811680865260048552838620805460001901905590871680865283862080546001019055868652600390945282852080549092168417909155905184937fddf252ad1be2c89b69c2b068fc378daa952ba7f163c4a11628f55a4df523b3ef91a4505050565b611ad981336124fd565b6000828152602081815260408083206001600160a01b038516845290915290205460ff16610c00576000828152602081815260408083206001600160a01b03851684529091529020805460ff19166001179055611e193390565b6001600160a01b0316816001600160a01b0316837f2f8788117e7eff1d82e926ec794901d17c78024a50270940304540a733656f0d60405160405180910390a45050565b6000828152602081815260408083206001600160a01b038516845290915290205460ff1615610c00576000828152602081815260408083206001600160a01b0385168085529252808320805460ff1916905551339285917ff6391f5c32d9c69d2a47ea670b442974b53935d1edc7fd64eb21e047a839171b9190a45050565b816001600160a01b0316836001600160a01b03161415611f3e5760405162461bcd60e51b815260206004820152601960248201527f4552433732313a20617070726f766520746f2063616c6c657200000000000000604482015260640161090e565b6001600160a01b03838116600081815260066020908152604080832094871680845294825291829020805460ff191686151590811790915591519182527f17307eab39ab6107e8899845ad3d59bd9653f200f220920489ca2b5937696c31910160405180910390a3505050565b611fb6848484611bc8565b611fc284848484612570565b6113985760405162461bcd60e51b815260206004820152603260248201527f4552433732313a207472616e7366657220746f206e6f6e20455243373231526560448201527f63656976657220696d706c656d656e7465720000000000000000000000000000606482015260840161090e565b600060118260405161204691906136c6565b9081526040519081900360200190205460ff16156120a65760405162461bcd60e51b815260206004820152601c60248201527f54686973207369676e617475726520686173206265656e207573656400000000604482015260640161090e565b60016011836040516120b891906136c6565b908152604051908190036020019020805491151560ff19909216919091179055428310156121285760405162461bcd60e51b815260206004820152601160248201527f7369676e61747572652065787069726564000000000000000000000000000000604482015260640161090e565b600033858760000151886020015189604001513089604051602001612153979695949392919061361e565b60405160208183030381529060405280519060200120905060006121c4826040517f19457468657265756d205369676e6564204d6573736167653a0a3332000000006020820152603c8101829052600090605c01604051602081830303815290604052805190602001209050919050565b905060006121d282866126d0565b90507f8c12add2c0f515b04a197676a5354bcc2a36728b6a00e19afdad7592e0df76e28560405161220391906138e0565b60405180910390a16001600160a01b031660009081527f0781d7cac9c378efa22a7481e4d4d29704a680ddf504b3bc50b517700ee11e6c602052604090205460ff16979650505050505050565b6000612260600b80546001019055565b600061226b600b5490565b905061227784826126f4565b6000818152600f6020908152604090912084518051869361229c92849291019061309a565b50602082015160018201805460ff90921660ff1983168117825560408501519261ffff1916176101008360038111156122e557634e487b7160e01b600052602160045260246000fd5b0217905550905050600c6122f88261288d565b6040516020016123099291906136e2565b60408051601f1981840301815291815260008381526010602090815291902082516123399391929091019061309a565b507f2036cf2c6d9c89f1623c97c491c157274f72a04d4c037af9039f62337f859e5c84828560405161236d93929190613874565b60405180910390a19392505050565b60006001600160e01b031982166380ac58cd60e01b14806123ad57506001600160e01b03198216635b5e139f60e01b145b806107da57506107da82612907565b6123c88484848461293c565b600181111561243f5760405162461bcd60e51b815260206004820152603560248201527f455243373231456e756d657261626c653a20636f6e736563757469766520747260448201527f616e7366657273206e6f7420737570706f727465640000000000000000000000606482015260840161090e565b816001600160a01b03851661249b5761249681600980546000838152600a60205260408120829055600182018355919091527f6e1540171b6c0c960b71a7020d9f60077f6af931a8bbf590da0223dacf75c7af0155565b6124be565b836001600160a01b0316856001600160a01b0316146124be576124be85826129c4565b6001600160a01b0384166124da576124d581612a61565b6114d9565b846001600160a01b0316846001600160a01b0316146114d9576114d98482612b3a565b6000828152602081815260408083206001600160a01b038516845290915290205460ff16610c005761252e81612b7e565b612539836020612b90565b60405160200161254a929190613788565b60408051601f198184030181529082905262461bcd60e51b825261090e916004016138e0565b60006001600160a01b0384163b156126c857604051630a85bd0160e11b81526001600160a01b0385169063150b7a02906125b4903390899088908890600401613838565b602060405180830381600087803b1580156125ce57600080fd5b505af19250505080156125fe575060408051601f3d908101601f191682019092526125fb91810190613428565b60015b6126ae573d80801561262c576040519150601f19603f3d011682016040523d82523d6000602084013e612631565b606091505b5080516126a65760405162461bcd60e51b815260206004820152603260248201527f4552433732313a207472616e7366657220746f206e6f6e20455243373231526560448201527f63656976657220696d706c656d656e7465720000000000000000000000000000606482015260840161090e565b805181602001fd5b6001600160e01b031916630a85bd0160e11b149050611a48565b506001611a48565b60008060006126df8585612d86565b915091506126ec81612dcc565b509392505050565b6001600160a01b03821661274a5760405162461bcd60e51b815260206004820181905260248201527f4552433732313a206d696e7420746f20746865207a65726f2061646472657373604482015260640161090e565b6000818152600360205260409020546001600160a01b0316156127af5760405162461bcd60e51b815260206004820152601c60248201527f4552433732313a20746f6b656e20616c7265616479206d696e74656400000000604482015260640161090e565b6127bd6000838360016123bc565b6000818152600360205260409020546001600160a01b0316156128225760405162461bcd60e51b815260206004820152601c60248201527f4552433732313a20746f6b656e20616c7265616479206d696e74656400000000604482015260640161090e565b6001600160a01b038216600081815260046020908152604080832080546001019055848352600390915280822080546001600160a01b0319168417905551839291907fddf252ad1be2c89b69c2b068fc378daa952ba7f163c4a11628f55a4df523b3ef908290a45050565b606081156128ea5760605b82156107da576128a9600a84613b72565b6128b49060306139e3565b816040516020016128c6929190613809565b60408051601f1981840301815291905290506128e3600a846139fb565b9250612898565b50506040805180820190915260018152600360fc1b602082015290565b60006001600160e01b03198216637965db0b60e01b14806107da57506301ffc9a760e01b6001600160e01b03198316146107da565b6001811115611398576001600160a01b03841615612982576001600160a01b0384166000908152600460205260408120805483929061297c908490613a2e565b90915550505b6001600160a01b03831615611398576001600160a01b038316600090815260046020526040812080548392906129b99084906139e3565b909155505050505050565b600060016129d184611231565b6129db9190613a2e565b600083815260086020526040902054909150808214612a2e576001600160a01b03841660009081526007602090815260408083208584528252808320548484528184208190558352600890915290208190555b5060009182526008602090815260408084208490556001600160a01b039094168352600781528383209183525290812055565b600954600090612a7390600190613a2e565b6000838152600a602052604081205460098054939450909284908110612aa957634e487b7160e01b600052603260045260246000fd5b906000526020600020015490508060098381548110612ad857634e487b7160e01b600052603260045260246000fd5b6000918252602080832090910192909255828152600a90915260408082208490558582528120556009805480612b1e57634e487b7160e01b600052603160045260246000fd5b6001900381819060005260206000200160009055905550505050565b6000612b4583611231565b6001600160a01b039093166000908152600760209081526040808320868452825280832085905593825260089052919091209190915550565b60606107da6001600160a01b03831660145b60606000612b9f836002613a0f565b612baa9060026139e3565b67ffffffffffffffff811115612bd057634e487b7160e01b600052604160045260246000fd5b6040519080825280601f01601f191660200182016040528015612bfa576020820181803683370190505b509050600360fc1b81600081518110612c2357634e487b7160e01b600052603260045260246000fd5b60200101906001600160f81b031916908160001a905350600f60fb1b81600181518110612c6057634e487b7160e01b600052603260045260246000fd5b60200101906001600160f81b031916908160001a9053506000612c84846002613a0f565b612c8f9060016139e3565b90505b6001811115612d30577f303132333435363738396162636465660000000000000000000000000000000085600f1660108110612cde57634e487b7160e01b600052603260045260246000fd5b1a60f81b828281518110612d0257634e487b7160e01b600052603260045260246000fd5b60200101906001600160f81b031916908160001a90535060049490941c93612d2981613b05565b9050612c92565b508315612d7f5760405162461bcd60e51b815260206004820181905260248201527f537472696e67733a20686578206c656e67746820696e73756666696369656e74604482015260640161090e565b9392505050565b600080825160411415612dbd5760208301516040840151606085015160001a612db187828585612f52565b94509450505050612dc5565b506000905060025b9250929050565b6000816004811115612dee57634e487b7160e01b600052602160045260246000fd5b1415612df75750565b6001816004811115612e1957634e487b7160e01b600052602160045260246000fd5b1415612e675760405162461bcd60e51b815260206004820152601860248201527f45434453413a20696e76616c6964207369676e61747572650000000000000000604482015260640161090e565b6002816004811115612e8957634e487b7160e01b600052602160045260246000fd5b1415612ed75760405162461bcd60e51b815260206004820152601f60248201527f45434453413a20696e76616c6964207369676e6174757265206c656e67746800604482015260640161090e565b6003816004811115612ef957634e487b7160e01b600052602160045260246000fd5b1415611ad95760405162461bcd60e51b815260206004820152602260248201527f45434453413a20696e76616c6964207369676e6174757265202773272076616c604482015261756560f01b606482015260840161090e565b6000807f7fffffffffffffffffffffffffffffff5d576e7357a4501ddfe92f46681b20a0831115612f89575060009050600361300d565b6040805160008082526020820180845289905260ff881692820192909252606081018690526080810185905260019060a0016020604051602081039080840390855afa158015612fdd573d6000803e3d6000fd5b5050604051601f1901519150506001600160a01b0381166130065760006001925092505061300d565b9150600090505b94509492505050565b82805461302290613b1c565b90600052602060002090601f016020900481019282613044576000855561308a565b82601f1061305d5782800160ff1982351617855561308a565b8280016001018555821561308a579182015b8281111561308a57823582559160200191906001019061306f565b5061309692915061310e565b5090565b8280546130a690613b1c565b90600052602060002090601f0160209004810192826130c8576000855561308a565b82601f106130e157805160ff191683800117855561308a565b8280016001018555821561308a579182015b8281111561308a5782518255916020019190600101906130f3565b5b80821115613096576000815560010161310f565b600067ffffffffffffffff8084111561313e5761313e613bb2565b604051601f8501601f19908116603f0116810190828211818310171561316657613166613bb2565b8160405280935085815286868601111561317f57600080fd5b858560208301376000602087830101525050509392505050565b600082601f8301126131a9578081fd5b612d7f83833560208501613123565b8035600481106131c757600080fd5b919050565b60008083601f8401126131dd578182fd5b50813567ffffffffffffffff8111156131f4578182fd5b602083019150836020828501011115612dc557600080fd5b803560ff811681146131c757600080fd5b60006020828403121561322e578081fd5b8135612d7f81613bc8565b6000806040838503121561324b578081fd5b823561325681613bc8565b9150602083013561326681613bc8565b809150509250929050565b600080600060608486031215613285578081fd5b833561329081613bc8565b925060208401356132a081613bc8565b929592945050506040919091013590565b600080600080608085870312156132c6578081fd5b84356132d181613bc8565b935060208501356132e181613bc8565b925060408501359150606085013567ffffffffffffffff811115613303578182fd5b61330f87828801613199565b91505092959194509250565b6000806040838503121561332d578182fd5b823561333881613bc8565b9150602083013561326681613bdd565b6000806040838503121561335a578182fd5b823561336581613bc8565b946020939093013593505050565b600080600060608486031215613387578283fd5b833561339281613bc8565b92506020840135915060408401356133a981613bc8565b809150509250925092565b6000602082840312156133c5578081fd5b8151612d7f81613bdd565b6000602082840312156133e1578081fd5b5035919050565b600080604083850312156133fa578182fd5b82359150602083013561326681613bc8565b60006020828403121561341d578081fd5b8135612d7f81613beb565b600060208284031215613439578081fd5b8151612d7f81613beb565b60008060208385031215613456578182fd5b823567ffffffffffffffff81111561346c578283fd5b613478858286016131cc565b90969095509350505050565b60008060008060808587031215613499578182fd5b843567ffffffffffffffff808211156134b0578384fd5b90860190606082890312156134c3578384fd5b9094506020860135935060408601359250606086013590808211156134e6578283fd5b5061330f87828801613199565b600060208284031215613504578081fd5b5051919050565b60008060006040848603121561351f578081fd5b83359250602084013567ffffffffffffffff81111561353c578182fd5b613548868287016131cc565b9497909650939450505050565b6000815180845261356d816020860160208601613ad9565b601f01601f19169290920160200192915050565b60008151613593818560208601613ad9565b9290920192915050565b600481106135bb57634e487b7160e01b600052602160045260246000fd5b9052565b81835281816020850137506000828201602090810191909152601f909101601f19169091010190565b60008151606084526135fd6060850182613555565b905060ff602084015116602085015260408301516126ec604086018261359d565b60006bffffffffffffffffffffffff19808a60601b168352886014840152875161364f816034860160208c01613ad9565b60f888901b7fff00000000000000000000000000000000000000000000000000000000000000166034918501918201526004871061369b57634e487b7160e01b83526021600452602483fd5b60f89690961b603587015260609490941b909316603685015250604a83015250606a01949350505050565b600082516136d8818460208701613ad9565b9190910192915050565b600080845482600182811c9150808316806136fe57607f831692505b602080841082141561371e57634e487b7160e01b87526022600452602487fd5b81801561373257600181146137435761376f565b60ff1986168952848901965061376f565b60008b815260209020885b868110156137675781548b82015290850190830161374e565b505084890196505b50505050505061377f8185613581565b95945050505050565b7f416363657373436f6e74726f6c3a206163636f756e74200000000000000000008152600083516137c0816017850160208801613ad9565b7f206973206d697373696e6720726f6c652000000000000000000000000000000060179184019182015283516137fd816028840160208801613ad9565b01602801949350505050565b60ff60f81b8360f81b1681526000825161382a816001850160208701613ad9565b919091016001019392505050565b60006001600160a01b0380871683528086166020840152508360408301526080606083015261386a6080830184613555565b9695505050505050565b6001600160a01b038416815282602082015260606040820152600061377f60608301846135e8565b6020808252825182820181905260009190848201906040850190845b818110156138d4578351835292840192918401916001016138b8565b50909695505050505050565b602081526000612d7f6020830184613555565b602081526000611a486020830184866135bf565b602081526000612d7f60208301846135e8565b8481526001600160a01b03841660208201526080604082015260008335601e19853603018112613948578182fd5b8401803567ffffffffffffffff811115613960578283fd5b80360386131561396e578283fd5b6060608085015261398660e0850182602085016135bf565b91505060ff6139976020870161320c565b1660a08401526139a9604086016131b8565b6139b660c085018261359d565b5060609290920192909252949350505050565b83815260406020820152600061377f6040830184866135bf565b600082198211156139f6576139f6613b86565b500190565b600082613a0a57613a0a613b9c565b500490565b6000816000190483118215151615613a2957613a29613b86565b500290565b600082821015613a4057613a40613b86565b500390565b600060608236031215613a56578081fd5b6040516060810167ffffffffffffffff8282108183111715613a7a57613a7a613bb2565b816040528435915080821115613a8e578384fd5b50830136601f820112613a9f578283fd5b613aae36823560208401613123565b825250613abd6020840161320c565b6020820152613ace604084016131b8565b604082015292915050565b60005b83811015613af4578181015183820152602001613adc565b838111156113985750506000910152565b600081613b1457613b14613b86565b506000190190565b600181811c90821680613b3057607f821691505b60208210811415613b5157634e487b7160e01b600052602260045260246000fd5b50919050565b6000600019821415613b6b57613b6b613b86565b5060010190565b600082613b8157613b81613b9c565b500690565b634e487b7160e01b600052601160045260246000fd5b634e487b7160e01b600052601260045260246000fd5b634e487b7160e01b600052604160045260246000fd5b6001600160a01b0381168114611ad957600080fd5b8015158114611ad957600080fd5b6001600160e01b031981168114611ad957600080fdfea164736f6c6343000804000ab19546dff01e856fb3f010c267a7b1c60363cf8a4664e21cc89c26224620214e68747470733a2f2f6170692d746573742e676f6c646d696e65726e66742e78797a2f6d616368696e652f6d657461646174612f",
  "linkReferences": {},
  "deployedLinkReferences": {}
}